:100000000C94A4000C94D5000C94D5000C94D5004D
:100010000C94D5000C94D5000C94D5000C94D5000C
:100020000C94D5000C94D5000C94D5000C94D500FC
:100030000C94D5000C94D5000C94D5000C94D500EC
:100040000C94D5000C94D5000C94D5000C94D500DC
:100050000C94D5000C94D5000C94D5000C94BB02E4
:100060000C94D5000C942F030C9405030C94D5002C
:100070000C94D5000C94D5000C94D5000C94D500AC
:100080000C94D5000C94D5000C94D5000C94D5009C
:100090000C94D5000C94D5000C94D5000C94D5008C
:1000A0000C94D5000C94D5000C94D5000C94D5007C
:1000B0000C94D5000C94D5000C94D5000C94D5006C
:1000C0000C94D5000C94D5000C94D5000C94D5005C
:1000D0000C94D5000C94D5000C94D5000C94D5004C
:1000E0000C94D5000C9498050C942A010C940701EB
:1000F0000C94D8000C9438010C94B6010C946F0148
:100100000C9416010C9465034E414E494E495459C6
:10011000494E46CDCCCC3D0AD7233C17B7D13877D2
:10012000CC2B329595E6241FB14F0A0000204100E8
:1001300000C84200401C4620BCBE4CCA1B0E5AAE32
:10014000C59D74006503980511241FBECFEFD1E251
:10015000DEBFCDBF00E00CBF22E0A2E4B2E001C0F0
:100160001D92AA3FB207E1F712E0A0E0B2E0ECE096
:10017000F7E100E00BBF02C007900D92A234B10777
:10018000D9F710E0C3EAD0E000E006C021970109EA
:10019000802FFE010E944109C23AD10780E0080782
:1001A000A9F70E949D030C94740B0C940000089511
:1001B000CF92DF92EF92FF920F931F93CF93DF9333
:1001C0006C017A018B01C0E0D0E0CE15DF0589F02B
:1001D000D8016D918D01D601ED91FC910190F081D6
:1001E000E02DC6011995892B11F47E0102C02196DC
:1001F000ECCFC701DF91CF911F910F91FF90EF904E
:10020000DF90CF900895089580E090E00895FC017C
:10021000538D448D252F30E0842F90E0821B930B6B
:10022000541710F0CF96089501970895FC01918D11
:10023000828D981761F0828DDF01A80FB11D5D9648
:100240008C91928D9F5F9F73928F90E008958FEFB6
:100250009FEF0895FC01918D828D981731F0828D6A
:10026000E80FF11D858D90E008958FEF9FEF0895C1
:10027000FC01918D228D892F90E0805C9F4F821B25
:1002800091098F73992708958BE492E00E943801B9
:1002900021E0892B09F420E0822F0895FC01848D50
:1002A000DF01A80FB11DA35ABF4F2C91848D90E0A0
:1002B00001968F739927848FA689B7892C93A0897B
:1002C000B1898C9180648C93938D848D981306C032
:1002D0000288F389E02D80818F7D80830895EF92DD
:1002E000FF920F931F93CF93DF93EC0181E0888FF0
:1002F0009B8D8C8D981305C0E889F989808185FDD7
:1003000024C0F62E0B8D10E00F5F1F4F0F731127C7
:10031000E02E8C8DE8120CC00FB607FCFACFE889EE
:10032000F989808185FFF5CFCE010E944E01F1CF82
:100330008B8DFE01E80FF11DE35AFF4FF0820B8F0A
:10034000EA89FB898081806207C0EE89FF8960832A
:10035000E889F98980818064808381E090E0DF9181
:10036000CF911F910F91FF90EF900895CF93DF935E
:10037000EC01888D8823C9F0EA89FB89808185FD9D
:1003800005C0A889B9898C9186FD0FC00FB607FCFE
:10039000F5CF808185FFF2CFA889B9898C9185FF3F
:1003A000EDCFCE010E944E01E7CFDF91CF910895AE
:1003B00080E090E0892B21F00E944401811125C04A
:1003C00080E090E0892B41F080E090E0892B21F0E3
:1003D0000E94000081111CC080E090E0892B41F058
:1003E00080E090E0892B21F00E940000811113C071
:1003F00080E090E0892BA1F080E090E0892B81F0F3
:100400000E94000081110AC008950E940000D8CF08
:100410000E940000E1CF0E940000EACF0C9400008F
:100420000895009769F0FC0101900020E9F73197E9
:10043000AF01481B590BBC018BE492E00C94D8002F
:1004400080E090E008958F929F92AF92BF920F93B9
:100450001F93CF93DF93CDB7DEB7A1970FB6F89474
:10046000DEBF0FBECDBF19A2423008F44AE08E01B4
:100470000F5D1F4F842E912CA12CB12CA50194014E
:100480000E941F09E62FB901CA0101501109EA3083
:1004900014F4E05D01C0E95CD801EC93232B242B1C
:1004A000252B61F7C8010E941102A1960FB6F8949E
:1004B000DEBF0FBECDBFDF91CF911F910F91BF90D7
:1004C000AF909F908F9008950E945F0BEF92FF92E4
:1004D0000F931F93CF93DF93EC017B018A018881F7
:1004E0009981009729F02A813B8124173507F8F478
:1004F000B8016F5F7F4F0E94760A009759F0998389
:1005000088831B830A832C813D81232B81F4FC018A
:1005100010820DC088819981009711F00E94DE0938
:10052000198218821D821C821B821A8207C01D83B9
:100530000C83B701888199810E946D0BCE01DF91F8
:10054000CF911F910F91FF90EF900895FC011182C0
:10055000108213821282158214826115710551F086
:10056000FB0101900020E9F73197AF01461B570BC3
:100570000C94660208951F920F920FB60F921124E9
:100580002F933F938F939F93AF93BF938091470295
:1005900090914802A0914902B0914A0230914602DE
:1005A00023E0230F2D3720F40196A11DB11D05C0B6
:1005B00026E8230F0296A11DB11D209346028093C9
:1005C000470290934802A0934902B0934A02809157
:1005D000420290914302A0914402B09145020196DB
:1005E000A11DB11D8093420290934302A093440247
:1005F000B0934502BF91AF919F918F913F912F9101
:100600000F900FBE0F901F9018951F920F920FB66C
:100610000F9211240BB60F922F933F934F935F933A
:100620006F937F938F939F93AF93BF93EF93FF93BA
:100630008BE492E00E944E01FF91EF91BF91AF9148
:100640009F918F917F916F915F914F913F912F91EA
:100650000F900BBE0F900FBE0F901F9018951F921A
:100660000F920FB60F9211240BB60F922F938F9308
:100670009F93EF93FF93E0915B02F0915C02808186
:10068000E0916102F091620282FD12C0908180913E
:1006900064028F5F8F7320916502821751F0E091A1
:1006A0006402F0E0E55BFD4F958F8093640201C02A
:1006B0008081FF91EF919F918F912F910F900BBEB1
:1006C0000F900FBE0F901F901895EBE4F2E013828D
:1006D000128288EE93E0A0E0B0E084839583A68345
:1006E000B7838AE092E09183808385EC90E09587E0
:1006F000848784EC90E09787868780EC90E0918BEC
:10070000808B81EC90E0938B828B82EC90E0958BD8
:10071000848B86EC90E0978B868B118E128E138ED5
:10072000148E68E172E08EEE92E00E94A60265E30C
:1007300072E088EE92E00C94A602CF93DF9300D093
:1007400000D0CDB7DEB7789484B5826084BD84B51F
:10075000816084BD85B5826085BD85B5816085BDBC
:1007600080916E00816080936E0010928100809174
:1007700081008260809381008091810081608093FC
:100780008100809180008160809380008091B10021
:1007900084608093B1008091B00081608093B0004C
:1007A000809191008260809391008091910081609E
:1007B000809391008091900081608093900080915F
:1007C000A10082608093A1008091A100816080934C
:1007D000A1008091A00081608093A0008091210100
:1007E00082608093210180912101816080932101A9
:1007F0008091200181608093200180917A00846043
:1008000080937A0080917A00826080937A00809150
:100810007A00816080937A0080917A00806880936A
:100820007A001092C100E0915B02F0915C0282E0DC
:100830008083E0915702F09158021082E0915902B2
:10084000F0915A028FEC808310926302E0915F0274
:10085000F091600286E08083E0915D02F0915E029B
:10086000808180618083E0915D02F0915E028081F1
:1008700088608083E0915D02F0915E0280818068F3
:100880008083E0915D02F0915E0280818F7D8083A4
:1008900082E292E00E94110283E392E00E94110240
:1008A0000091F2021091F3020230110520F4780158
:1008B00002E010E003C082E0E82EF12C65E372E074
:1008C000CE0101960E94A6028091F2029091F3025D
:1008D000E816F906B0F58017910708F48C01E0914D
:1008E000EE02F091EF02E00FF11FD08010826091D4
:1008F000EE027091EF026E0D7F1D6115710569F0BA
:10090000FB0101900020E9F73197AF01461B570B1F
:10091000CE0101960E9466020CC089819A810097DF
:1009200011F00E94DE091A8219821E821D821C8229
:100930001B828091EE029091EF02FC01E00FF11F0B
:10094000D0828091E8029091E9020097C9F0698114
:100950007A816115710591F04091EA025091EB02A4
:100960002D813E814217530748F00E946D0B8D8107
:100970009E819093ED028093EC0218C00E94DE09E4
:1009800089819A819093E9028093E8028B819C810E
:100990009093EB028093EA028D819E819093ED0209
:1009A0008093EC021A8219821C821B821E821D8295
:1009B00089819A810E94DE098091E8029091E90282
:1009C000009769F00E94A4056B017C019B01AC01BA
:1009D0000E941A09882331F086E392E01DC0C12CE1
:1009E000D12C760146015701E894B7F82FEF3FEF7D
:1009F0004FE75FE7C501B4010E941A0981110FC0DA
:100A00002FEF3FEF4FE75FE7C501B4010E943807C2
:100A100018162CF48AE392E00E94110282C02FEF94
:100A20003FEF4FE75FE4C701B6010E9415091816B2
:100A30001CF48EE392E0F0CF2FEF3FEF4FE75FEC37
:100A4000C701B6010E94380787FDF3CF20E030E0F0
:100A5000A901C701B6010E94380787FF0FC0E091C6
:100A60004B02F0914C020190F081E02D6DE28BE49D
:100A700092E01995F7FAF094F7F8F0942AE037ED40
:100A800043EA5BE3C701B6010E947A084B015C01AF
:100A90000E94E6086B017C010E943D079B01AC01AE
:100AA000C501B4010E9479084B015C014AE0C7010D
:100AB000B6010E942302E0914B02F0914C0201909A
:100AC000F081E02D6EE28BE492E0199520E030E0B9
:100AD00040E251E4C501B4010E949E074B015C0154
:100AE0000E94E6086B01E12CF12C4AE0C701B60137
:100AF0000E942302C701B6010E943D079B01AC0181
:100B0000C501B4010E94790820E030E040E251E4E0
:100B10000E949E070E94E60880E090E04AE00E9462
:100B2000230283E392E00E9411020E94D801B8CE12
:100B30008091E8029091E9020E94DE098091EE0224
:100B40009091EF020C94DE09662777270C94A80594
:100B50006F927F928F929F92AF92BF92CF92DF92CD
:100B6000EF92FF920F931F93CF93DF93EC017B01E2
:100B70006115710519F0DB018D939C938E010F5F58
:100B80001F4F7880872D90E00E941707892B11F066
:100B9000E801F4CFBDE27B1205C00F5F1F4F7980E3
:100BA000C1E008C0EBE27E1204C08E010E5F1F4F51
:100BB0007980C0E06801F1E0CF1AD10843E050E04D
:100BC00060E171E0C6010E942007892BF1F4680101
:100BD00022E0C20ED11C45E050E06BE071E0C6019E
:100BE0000E942007892B21F4680187E0C80ED11CE0
:100BF000E114F10419F0D701CD92DC92C111FFC0CC
:100C000060E070E080E89FE703C143E050E068E007
:100C100071E0C6010E942007892B51F4E114F10410
:100C200009F4F2C00E5F1F4FF70111830083ECC07F
:100C3000680160E070E0CB0100E010E0F601D0ED6B
:100C4000D70DDA3058F52C2F2260622E2C2F287009
:100C5000C2FF05C0211128C00F5F1F4F25C02223EE
:100C600011F001501109A5E0B0E09B01AC010E9418
:100C70005F084B015C01880C991CAA1CBB1CC501B8
:100C8000B4016D0F711D811D911D6839A9E97A07A5
:100C90008A07A9E19A0740F0C66005C0DE3F51F41B
:100CA000C3FD44C0C8606C2EBFEFCB1ADB0A708056
:100CB000C62DC4CF2D2F2F7D2531C1F540814D325A
:100CC00011F4C06106C04B3221F0319621E030E0D2
:100CD00006C03296D60111964C9122E030E0A0ED8C
:100CE000A40FAA3018F0E21BF30B20C040E050E044
:100CF0004038BCE05B075CF49A01220F331F220FDF
:100D0000331F420F531F440F551F4A0F511D319679
:100D1000DF0111972C91A0EDA20FAA3048F3C4FF78
:100D200003C0519541955109040F151FC1FF07C01C
:100D3000E114F10421F03197D701ED93FC930E9467
:100D40003D07C370C33019F06B017C0106C06B0115
:100D50007C01F7FAF094F7F8F09420E030E0A90174
:100D6000C701B6010E943807882309F445C017FF60
:100D700006C0119501951109C7E2D1E002C0CFE389
:100D8000D1E05E01B8E1AB1AB1084601BE2DAF2D2E
:100D900090E2E92EF12C0E151F0584F0FE0125913D
:100DA000359145915491B4018B2F9A2F0E949E0743
:100DB0004B01B82FA92F0E191F09EDCF2497F594D9
:100DC000E794CA15DB0539F76401EB2EFA2E8E2D58
:100DD000880F8F2D881F8F3F49F020E030E0A90158
:100DE000C701B6010E943807811106C082E290E077
:100DF0009093F5028093F402C701B60109C060E048
:100E000070E080E89FEF04C060E070E080EC9FE756
:100E1000DF91CF911F910F91FF90EF90DF90CF90D6
:100E2000BF90AF909F908F907F906F900895911199
:100E30000C940B08803219F089508550C8F708953A
:100E4000FB01DC014150504088F08D9181341CF051
:100E50008B350CF4805E659161341CF06B350CF4BD
:100E6000605E861B611171F3990B0895881BFCCF9E
:100E70000E947A0708F481E00895E89409C097FB7E
:100E80003EF490958095709561957F4F8F4F9F4F61
:100E90009923A9F0F92F96E9BB279395F6958795A5
:100EA00077956795B795F111F8CFFAF4BB0F11F468
:100EB00060FF1BC06F5F7F4F8F4F9F4F16C088230F
:100EC00011F096E911C0772321F09EE8872F762F45
:100ED00005C0662371F096E8862F70E060E02AF086
:100EE0009A95660F771F881FDAF7880F9695879572
:100EF00097F90895990F0008550FAA0BE0E8FEEF47
:100F000016161706E807F907C0F012161306E407CD
:100F1000F50798F0621B730B840B950B39F40A26C6
:100F200061F0232B242B252B21F408950A2609F4A4
:100F3000A140A6958FEF811D811D08950E94B107E4
:100F40000C9425080E94170838F00E941E0820F013
:100F5000952311F00C940E080C94140811240C9491
:100F600059080E94360870F3959FC1F3950F50E021
:100F7000551F629FF001729FBB27F00DB11D639F4B
:100F8000AA27F00DB11DAA1F649F6627B00DA11DF1
:100F9000661F829F2227B00DA11D621F739FB00D97
:100FA000A11D621F839FA00D611D221F749F332707
:100FB000A00D611D231F849F600D211D822F762FA0
:100FC0006A2F11249F5750409AF0F1F088234AF07D
:100FD000EE0FFF1FBB1F661F771F881F91505040E9
:100FE000A9F79E3F510580F00C940E080C94590807
:100FF0005F3FE4F3983ED4F3869577956795B79570
:10100000F795E7959F5FC1F7FE2B880F911D969589
:10101000879597F9089599278827089597F99F67E5
:1010200080E870E060E008959FEF80EC0895002470
:101030000A941616170618060906089500240A943D
:1010400012161306140605060895092E0394000CC3
:1010500011F4882352F0BB0F40F4BF2B11F460FF52
:1010600004C06F5F7F4F8F4F9F4F089557FD90587B
:10107000440F551F59F05F3F71F04795880F97FB5C
:10108000991F61F09F3F79F0879508951216130616
:101090001406551FF2CF4695F1DF08C01616170645
:1010A0001806991FF1CF869571056105089408957A
:1010B000E894BB2766277727CB0197F908950E940C
:1010C0006A08A59F900DB49F900DA49F800D911D5F
:1010D00011240895A29FB001B39FC001A39F700D7A
:1010E000811D1124911DB29F700D811D1124911D30
:1010F00008955058BB27AA270E9491080C942508F0
:101100000E94170838F00E941E0820F039F49F3F13
:1011100019F426F40C9414080EF4E095E7FB0C94F3
:101120000E08E92F0E94360858F3BA1762077307B2
:101130008407950720F079F4A6F50C9458080EF46E
:10114000E0950B2EBA2FA02D0B01B90190010C01D7
:10115000CA01A0011124FF27591B99F0593F50F4EF
:10116000503E68F11A16F040A22F232F342F442747
:10117000585FF3CF469537952795A795F04053953F
:10118000C9F77EF41F16BA0B620B730B840BBAF00F
:101190009150A1F0FF0FBB1F661F771F881FC2F77A
:1011A0000EC0BA0F621F731F841F48F4879577958E
:1011B0006795B795F7959E3F08F0B0CF9395880F48
:1011C00008F09927EE0F9795879508950E943E089D
:1011D00088F09F5798F0B92F9927B751B0F0E1F0F8
:1011E000660F771F881F991F1AF0BA95C9F714C0A8
:1011F000B13091F00E945808B1E008950C9458085D
:10120000672F782F8827B85F39F0B93FCCF38695E0
:1012100077956795B395D9F73EF49095809570953D
:1012200061957F4F8F4F9F4F08950E947A0708F472
:101230008FEF08950E947A07880B990B0895A1E219
:101240001A2EAA1BBB1BFD010DC0AA1FBB1FEE1F40
:10125000FF1FA217B307E407F50720F0A21BB30B8B
:10126000E40BF50B661F771F881F991F1A9469F707
:1012700060957095809590959B01AC01BD01CF0163
:101280000895EE0FFF1F881F8BBF0790F691E02D8A
:101290001994CF93DF938230910510F482E090E0AF
:1012A000E091F802F091F90220E030E0C0E0D0E0F7
:1012B000309711F14081518148175907C0F0481704
:1012C000590761F482819381209719F09B838A8367
:1012D0002BC09093F9028093F80226C021153105A6
:1012E00019F04217530718F49A01BE01DF01EF010C
:1012F0000280F381E02DDCCF2115310509F1281B97
:10130000390B2430310590F412968D919C911397EE
:101310006115710521F0FB019383828304C09093D2
:10132000F9028093F802FD01329644C0FD01E20FFC
:10133000F31F81939193225031092D933C933AC02E
:101340002091F6023091F702232B41F42091020202
:10135000309103023093F7022093F60220910002AD
:10136000309101022115310541F42DB73EB740916E
:10137000040250910502241B350BE091F602F09116
:10138000F702E217F307A0F42E1B3F0B28173907CB
:1013900078F0AC014E5F5F4F2417350748F04E0FD1
:1013A0005F1F5093F7024093F6028193919302C01E
:1013B000E0E0F0E0CF01DF91CF9108950F931F930C
:1013C000CF93DF93009709F48CC0FC01329713820E
:1013D00012820091F8021091F9020115110581F4B1
:1013E00020813181820F931F2091F6023091F70204
:1013F0002817390779F5F093F702E093F60271C0E8
:10140000D80140E050E0AE17BF0750F412962D917E
:101410003C911397AD012115310509F1D901F3CFA5
:101420009D01DA013383228360817181860F971FCA
:101430008217930769F4EC0128813981260F371F41
:101440002E5F3F4F318320838A819B8193838283E8
:10145000452B29F4F093F902E093F80242C0139669
:10146000FC93EE931297ED01499159919E01240F3F
:10147000351FE217F30771F480819181840F951F66
:10148000029611969C938E938281938113969C93DE
:101490008E931297E0E0F0E0D80112968D919C9126
:1014A0001397009719F0F8018C01F6CF8D919C915C
:1014B00098012E5F3F4F820F931F2091F6023091CB
:1014C000F7022817390769F4309729F41092F902C6
:1014D0001092F80202C0138212821093F702009356
:1014E000F602DF91CF911F910F9108956F927F9235
:1014F0008F929F92AF92BF92CF92DF92EF92FF9224
:101500000F931F93CF93DF93EC01009789F4CB01E6
:10151000DF91CF911F910F91FF90EF90DF90CF90CF
:10152000BF90AF909F908F907F906F900C944909DF
:10153000FC01E60FF71F9C0122503109E217F30767
:1015400008F4ACC0D9010D911C911197061717072B
:10155000B0F00530110508F49FC0C8010497861744
:10156000970708F499C002501109061B170B019345
:1015700011936D937C93CF010E94DE098DC05B01B6
:10158000A01AB10A4C01800E911EA091F802B091F0
:10159000F90240E050E0E12CF12C109709F44AC028
:1015A000A815B905D1F56D907C901197630182E083
:1015B000C80ED11CCA14DB0480F1A3014A195B09CF
:1015C0006A0182E0C80ED11C1296BC901297139645
:1015D000AC91B5E0CB16D10440F0B282A383518325
:1015E0004083D9016D937C930AC00E5F1F4FC301E6
:1015F000800F911FF90191838083EB2DFA2FE11465
:10160000F10431F0D7011396FC93EE93129744C086
:10161000F093F902E093F8023FC08D919C911197ED
:101620004817590708F4AC017D0112960D90BC9142
:10163000A02DB3CF8091F6029091F70288159905FD
:10164000E1F446175707C8F4809100029091010217
:10165000009741F48DB79EB7409104025091050266
:10166000841B950BE817F907C8F4F093F702E09391
:10167000F602F901718360830FC0CB010E94490912
:101680007C01009759F0A801BE010E94640BCE01B5
:101690000E94DE09C70104C0CE0102C080E090E0D4
:1016A000DF91CF911F910F91FF90EF90DF90CF903E
:1016B000BF90AF909F908F907F906F90089581E042
:1016C00090E0F8940C94740BFB01DC0102C00190D3
:1016D0000D9241505040D8F70895FB01DC01019074
:1016E0000D920020E1F7089510E0C3EAD0E000E099
:1016F00006C0802FFE010E9441092196011DC43AB7
:0C170000D10780E00807A9F7F894FFCF9C
:10170C000000FA028000000000006F01D800070101
:10171C00B601380116012A01532030203120302027
:10172C003100546869732069732061207374726985
:10173C006E67000D0A006E616E00696E66006F7652
:02174C00660035
:00000001FF
