Archive member included because of file (symbol)

c:/program files/arduino/hardware/tools/avr/bin/../lib/gcc/avr/4.3.2/avr6\libgcc.a(_mulsi3.o)
                              ./arduino/Print.o (__mulsi3)
c:/program files/arduino/hardware/tools/avr/bin/../lib/gcc/avr/4.3.2/avr6\libgcc.a(_divmodhi4.o)
                              ./arduino/HardwareSerial.o (__divmodhi4)
c:/program files/arduino/hardware/tools/avr/bin/../lib/gcc/avr/4.3.2/avr6\libgcc.a(_udivmodsi4.o)
                              ./arduino/HardwareSerial.o (__udivmodsi4)
c:/program files/arduino/hardware/tools/avr/bin/../lib/gcc/avr/4.3.2/avr6\libgcc.a(_divmodsi4.o)
                              ./arduino/WMath.o (__divmodsi4)
c:/program files/arduino/hardware/tools/avr/bin/../lib/gcc/avr/4.3.2/avr6\libgcc.a(_exit.o)
                              c:/program files/arduino/hardware/tools/avr/bin/../lib/gcc/avr/4.3.2/../../../../avr/lib/avr6/crtm2560.o (exit)
c:/program files/arduino/hardware/tools/avr/bin/../lib/gcc/avr/4.3.2/avr6\libgcc.a(_clear_bss.o)
                              ./arduino/avr-libc/malloc.o (__do_clear_bss)
c:/program files/arduino/hardware/tools/avr/bin/../lib/gcc/avr/4.3.2/avr6\libgcc.a(_ctors.o)
                              ./arduino/HardwareSerial0.o (__do_global_ctors)
c:/program files/arduino/hardware/tools/avr/bin/../lib/gcc/avr/4.3.2/avr6\libgcc.a(_fixunssfsi.o)
                              ./arduino/Print.o (__fixunssfsi)
c:/program files/arduino/hardware/tools/avr/bin/../lib/gcc/avr/4.3.2/avr6\libgcc.a(_addsub_sf.o)
                              ./arduino/Print.o (__subsf3)
c:/program files/arduino/hardware/tools/avr/bin/../lib/gcc/avr/4.3.2/avr6\libgcc.a(_mul_sf.o)
                              ./arduino/Print.o (__mulsf3)
c:/program files/arduino/hardware/tools/avr/bin/../lib/gcc/avr/4.3.2/avr6\libgcc.a(_div_sf.o)
                              ./arduino/Print.o (__divsf3)
c:/program files/arduino/hardware/tools/avr/bin/../lib/gcc/avr/4.3.2/avr6\libgcc.a(_gt_sf.o)
                              ./arduino/Print.o (__gtsf2)
c:/program files/arduino/hardware/tools/avr/bin/../lib/gcc/avr/4.3.2/avr6\libgcc.a(_ge_sf.o)
                              c:/program files/arduino/hardware/tools/avr/bin/../lib/gcc/avr/4.3.2/avr6\libgcc.a(_fixunssfsi.o) (__gesf2)
c:/program files/arduino/hardware/tools/avr/bin/../lib/gcc/avr/4.3.2/avr6\libgcc.a(_lt_sf.o)
                              ./arduino/Print.o (__ltsf2)
c:/program files/arduino/hardware/tools/avr/bin/../lib/gcc/avr/4.3.2/avr6\libgcc.a(_le_sf.o)
                              ./arduino/Print.o (__lesf2)
c:/program files/arduino/hardware/tools/avr/bin/../lib/gcc/avr/4.3.2/avr6\libgcc.a(_unord_sf.o)
                              ./arduino/Print.o (__unordsf2)
c:/program files/arduino/hardware/tools/avr/bin/../lib/gcc/avr/4.3.2/avr6\libgcc.a(_si_to_sf.o)
                              ./arduino/Print.o (__floatsisf)
c:/program files/arduino/hardware/tools/avr/bin/../lib/gcc/avr/4.3.2/avr6\libgcc.a(_sf_to_si.o)
                              ./arduino/Print.o (__fixsfsi)
c:/program files/arduino/hardware/tools/avr/bin/../lib/gcc/avr/4.3.2/avr6\libgcc.a(_thenan_sf.o)
                              c:/program files/arduino/hardware/tools/avr/bin/../lib/gcc/avr/4.3.2/avr6\libgcc.a(_addsub_sf.o) (__thenan_sf)
c:/program files/arduino/hardware/tools/avr/bin/../lib/gcc/avr/4.3.2/avr6\libgcc.a(_usi_to_sf.o)
                              ./arduino/Print.o (__floatunsisf)
c:/program files/arduino/hardware/tools/avr/bin/../lib/gcc/avr/4.3.2/avr6\libgcc.a(_udivmodhi4.o)
                              c:/program files/arduino/hardware/tools/avr/bin/../lib/gcc/avr/4.3.2/avr6\libgcc.a(_divmodhi4.o) (__udivmodhi4)
c:/program files/arduino/hardware/tools/avr/bin/../lib/gcc/avr/4.3.2/avr6\libgcc.a(_prologue.o)
                              c:/program files/arduino/hardware/tools/avr/bin/../lib/gcc/avr/4.3.2/avr6\libgcc.a(_addsub_sf.o) (__prologue_saves__)
c:/program files/arduino/hardware/tools/avr/bin/../lib/gcc/avr/4.3.2/avr6\libgcc.a(_epilogue.o)
                              c:/program files/arduino/hardware/tools/avr/bin/../lib/gcc/avr/4.3.2/avr6\libgcc.a(_addsub_sf.o) (__epilogue_restores__)
c:/program files/arduino/hardware/tools/avr/bin/../lib/gcc/avr/4.3.2/avr6\libgcc.a(_tablejump.o)
                              c:/program files/arduino/hardware/tools/avr/bin/../lib/gcc/avr/4.3.2/avr6\libgcc.a(_ctors.o) (__tablejump__)
c:/program files/arduino/hardware/tools/avr/bin/../lib/gcc/avr/4.3.2/avr6\libgcc.a(_clzsi2.o)
                              c:/program files/arduino/hardware/tools/avr/bin/../lib/gcc/avr/4.3.2/avr6\libgcc.a(_si_to_sf.o) (__clzsi2)
c:/program files/arduino/hardware/tools/avr/bin/../lib/gcc/avr/4.3.2/avr6\libgcc.a(_pack_sf.o)
                              c:/program files/arduino/hardware/tools/avr/bin/../lib/gcc/avr/4.3.2/avr6\libgcc.a(_addsub_sf.o) (__pack_f)
c:/program files/arduino/hardware/tools/avr/bin/../lib/gcc/avr/4.3.2/avr6\libgcc.a(_unpack_sf.o)
                              c:/program files/arduino/hardware/tools/avr/bin/../lib/gcc/avr/4.3.2/avr6\libgcc.a(_addsub_sf.o) (__unpack_f)
c:/program files/arduino/hardware/tools/avr/bin/../lib/gcc/avr/4.3.2/avr6\libgcc.a(_fpcmp_parts_sf.o)
                              c:/program files/arduino/hardware/tools/avr/bin/../lib/gcc/avr/4.3.2/avr6\libgcc.a(_gt_sf.o) (__fpcmp_parts_f)
c:/program files/arduino/hardware/tools/avr/bin/../lib/gcc/avr/4.3.2/avr6\libgcc.a(_clz.o)
                              c:/program files/arduino/hardware/tools/avr/bin/../lib/gcc/avr/4.3.2/avr6\libgcc.a(_clzsi2.o) (__clz_tab)
c:/program files/arduino/hardware/tools/avr/bin/../lib/gcc/avr/4.3.2/../../../../avr/lib/avr6\libc.a(dtostrf.o)
                              ./arduino/WString.o (dtostrf)
c:/program files/arduino/hardware/tools/avr/bin/../lib/gcc/avr/4.3.2/../../../../avr/lib/avr6\libc.a(random.o)
                              ./arduino/WMath.o (random)
c:/program files/arduino/hardware/tools/avr/bin/../lib/gcc/avr/4.3.2/../../../../avr/lib/avr6\libc.a(atof.o)
                              ./arduino/WString.o (atof)
c:/program files/arduino/hardware/tools/avr/bin/../lib/gcc/avr/4.3.2/../../../../avr/lib/avr6\libc.a(atol.o)
                              ./arduino/WString.o (atol)
c:/program files/arduino/hardware/tools/avr/bin/../lib/gcc/avr/4.3.2/../../../../avr/lib/avr6\libc.a(isspace.o)
                              ./arduino/WString.o (isspace)
c:/program files/arduino/hardware/tools/avr/bin/../lib/gcc/avr/4.3.2/../../../../avr/lib/avr6\libc.a(tolower.o)
                              ./arduino/WString.o (tolower)
c:/program files/arduino/hardware/tools/avr/bin/../lib/gcc/avr/4.3.2/../../../../avr/lib/avr6\libc.a(toupper.o)
                              ./arduino/WString.o (toupper)
c:/program files/arduino/hardware/tools/avr/bin/../lib/gcc/avr/4.3.2/../../../../avr/lib/avr6\libc.a(strcpy_P.o)
                              ./arduino/WString.o (strcpy_P)
c:/program files/arduino/hardware/tools/avr/bin/../lib/gcc/avr/4.3.2/../../../../avr/lib/avr6\libc.a(strlen_P.o)
                              ./arduino/WString.o (strlen_P)
c:/program files/arduino/hardware/tools/avr/bin/../lib/gcc/avr/4.3.2/../../../../avr/lib/avr6\libc.a(memcmp.o)
                              ./arduino/IPAddress.o (memcmp)
c:/program files/arduino/hardware/tools/avr/bin/../lib/gcc/avr/4.3.2/../../../../avr/lib/avr6\libc.a(memcpy.o)
                              ./arduino/avr-libc/realloc.o (memcpy)
c:/program files/arduino/hardware/tools/avr/bin/../lib/gcc/avr/4.3.2/../../../../avr/lib/avr6\libc.a(memmove.o)
                              ./arduino/WString.o (memmove)
c:/program files/arduino/hardware/tools/avr/bin/../lib/gcc/avr/4.3.2/../../../../avr/lib/avr6\libc.a(memset.o)
                              ./arduino/IPAddress.o (memset)
c:/program files/arduino/hardware/tools/avr/bin/../lib/gcc/avr/4.3.2/../../../../avr/lib/avr6\libc.a(strchr.o)
                              ./arduino/WString.o (strchr)
c:/program files/arduino/hardware/tools/avr/bin/../lib/gcc/avr/4.3.2/../../../../avr/lib/avr6\libc.a(strcmp.o)
                              ./arduino/WString.o (strcmp)
c:/program files/arduino/hardware/tools/avr/bin/../lib/gcc/avr/4.3.2/../../../../avr/lib/avr6\libc.a(strcpy.o)
                              ./arduino/WString.o (strcpy)
c:/program files/arduino/hardware/tools/avr/bin/../lib/gcc/avr/4.3.2/../../../../avr/lib/avr6\libc.a(strlen.o)
                              ./arduino/Print.o (strlen)
c:/program files/arduino/hardware/tools/avr/bin/../lib/gcc/avr/4.3.2/../../../../avr/lib/avr6\libc.a(strncmp.o)
                              ./arduino/WString.o (strncmp)
c:/program files/arduino/hardware/tools/avr/bin/../lib/gcc/avr/4.3.2/../../../../avr/lib/avr6\libc.a(strncpy.o)
                              ./arduino/WString.o (strncpy)
c:/program files/arduino/hardware/tools/avr/bin/../lib/gcc/avr/4.3.2/../../../../avr/lib/avr6\libc.a(strrchr.o)
                              ./arduino/WString.o (strrchr)
c:/program files/arduino/hardware/tools/avr/bin/../lib/gcc/avr/4.3.2/../../../../avr/lib/avr6\libc.a(strstr.o)
                              ./arduino/WString.o (strstr)
c:/program files/arduino/hardware/tools/avr/bin/../lib/gcc/avr/4.3.2/../../../../avr/lib/avr6\libc.a(itoa.o)
                              ./arduino/WString.o (itoa)
c:/program files/arduino/hardware/tools/avr/bin/../lib/gcc/avr/4.3.2/../../../../avr/lib/avr6\libc.a(ltoa.o)
                              ./arduino/WString.o (ltoa)
c:/program files/arduino/hardware/tools/avr/bin/../lib/gcc/avr/4.3.2/../../../../avr/lib/avr6\libc.a(mulsi10.o)
                              c:/program files/arduino/hardware/tools/avr/bin/../lib/gcc/avr/4.3.2/../../../../avr/lib/avr6\libc.a(atol.o) (__mulsi_const_10)
c:/program files/arduino/hardware/tools/avr/bin/../lib/gcc/avr/4.3.2/../../../../avr/lib/avr6\libc.a(ultoa.o)
                              ./arduino/WString.o (ultoa)
c:/program files/arduino/hardware/tools/avr/bin/../lib/gcc/avr/4.3.2/../../../../avr/lib/avr6\libc.a(utoa.o)
                              ./arduino/WString.o (utoa)
c:/program files/arduino/hardware/tools/avr/bin/../lib/gcc/avr/4.3.2/../../../../avr/lib/avr6\libc.a(dtoa_prf.o)
                              c:/program files/arduino/hardware/tools/avr/bin/../lib/gcc/avr/4.3.2/../../../../avr/lib/avr6\libc.a(dtostrf.o) (dtoa_prf)
c:/program files/arduino/hardware/tools/avr/bin/../lib/gcc/avr/4.3.2/../../../../avr/lib/avr6\libc.a(strtod.o)
                              c:/program files/arduino/hardware/tools/avr/bin/../lib/gcc/avr/4.3.2/../../../../avr/lib/avr6\libc.a(atof.o) (strtod)
c:/program files/arduino/hardware/tools/avr/bin/../lib/gcc/avr/4.3.2/../../../../avr/lib/avr6\libc.a(ftoa_engine.o)
                              c:/program files/arduino/hardware/tools/avr/bin/../lib/gcc/avr/4.3.2/../../../../avr/lib/avr6\libc.a(dtoa_prf.o) (__ftoa_engine)
c:/program files/arduino/hardware/tools/avr/bin/../lib/gcc/avr/4.3.2/../../../../avr/lib/avr6\libc.a(cty_isfalse.o)
                              c:/program files/arduino/hardware/tools/avr/bin/../lib/gcc/avr/4.3.2/../../../../avr/lib/avr6\libc.a(isspace.o) (__ctype_isfalse)
c:/program files/arduino/hardware/tools/avr/bin/../lib/gcc/avr/4.3.2/../../../../avr/lib/avr6\libc.a(strncasecmp_P.o)
                              c:/program files/arduino/hardware/tools/avr/bin/../lib/gcc/avr/4.3.2/../../../../avr/lib/avr6\libc.a(strtod.o) (strncasecmp_P)
c:/program files/arduino/hardware/tools/avr/bin/../lib/gcc/avr/4.3.2/../../../../avr/lib/avr6\libc.a(strrev.o)
                              c:/program files/arduino/hardware/tools/avr/bin/../lib/gcc/avr/4.3.2/../../../../avr/lib/avr6\libc.a(itoa.o) (strrev)
c:/program files/arduino/hardware/tools/avr/bin/../lib/gcc/avr/4.3.2/../../../../avr/lib/avr6\libc.a(cmpsf2.o)
                              c:/program files/arduino/hardware/tools/avr/bin/../lib/gcc/avr/4.3.2/../../../../avr/lib/avr6\libc.a(strtod.o) (__eqsf2)
c:/program files/arduino/hardware/tools/avr/bin/../lib/gcc/avr/4.3.2/../../../../avr/lib/avr6\libc.a(fp_cmp.o)
                              c:/program files/arduino/hardware/tools/avr/bin/../lib/gcc/avr/4.3.2/../../../../avr/lib/avr6\libc.a(cmpsf2.o) (__fp_cmp)
c:/program files/arduino/hardware/tools/avr/bin/../lib/gcc/avr/4.3.2/../../../../avr/lib/avr6\libc.a(errno.o)
                              c:/program files/arduino/hardware/tools/avr/bin/../lib/gcc/avr/4.3.2/../../../../avr/lib/avr6\libc.a(strtod.o) (errno)

Allocating common symbols
Common symbol       size              file

errno               0x2               c:/program files/arduino/hardware/tools/avr/bin/../lib/gcc/avr/4.3.2/../../../../avr/lib/avr6\libc.a(errno.o)
__brkval            0x2               ./arduino/avr-libc/malloc.o
__flp               0x2               ./arduino/avr-libc/malloc.o

Discarded input sections

 .data          0x00000000        0x0 c:/program files/arduino/hardware/tools/avr/bin/../lib/gcc/avr/4.3.2/../../../../avr/lib/avr6/crtm2560.o
 .bss           0x00000000        0x0 c:/program files/arduino/hardware/tools/avr/bin/../lib/gcc/avr/4.3.2/../../../../avr/lib/avr6/crtm2560.o
 .text          0x00000000        0x0 ./arduino/avr-libc/malloc.o
 .data          0x00000000        0x0 ./arduino/avr-libc/malloc.o
 .bss           0x00000000        0x0 ./arduino/avr-libc/malloc.o
 .stab          0x00000000        0x0 ./arduino/avr-libc/malloc.o
 .stabstr       0x00000000        0x0 ./arduino/avr-libc/malloc.o
 .text.avr-libc
                0x00000000        0x0 ./arduino/avr-libc/malloc.o
 .data.__malloc_margin
                0x00000000        0x0 ./arduino/avr-libc/malloc.o
 .data.__malloc_heap_start
                0x00000000        0x0 ./arduino/avr-libc/malloc.o
 .data.__malloc_heap_end
                0x00000000        0x0 ./arduino/avr-libc/malloc.o
 COMMON         0x00000000        0x0 ./arduino/avr-libc/malloc.o
 .text          0x00000000        0x0 ./arduino/avr-libc/realloc.o
 .data          0x00000000        0x0 ./arduino/avr-libc/realloc.o
Memory Configuration

Name             Origin             Length             Attributes
text             0x00000000         0x00100000         xr
data             0x00800200         0x0000fe00         rw !x
eeprom           0x00810000         0x00010000         rw !x
fuse             0x00820000         0x00000400         rw !x
lock             0x00830000         0x00000400         rw !x
signature        0x00840000         0x00000400         rw !x
*default*        0x00000000         0xffffffff

Linker script and memory map

Address of section .data set to 0x800200
LOAD c:/program files/arduino/hardware/tools/avr/bin/../lib/gcc/avr/4.3.2/../../../../avr/lib/avr6/crtm2560.o
LOAD ./arduino/avr-libc/malloc.o
LOAD ./arduino/avr-libc/realloc.o
LOAD ./arduino/CDC.o
LOAD ./arduino/HID.o
LOAD ./arduino/HardwareSerial.o
LOAD ./arduino/HardwareSerial0.o
LOAD ./arduino/HardwareSerial1.o
LOAD ./arduino/HardwareSerial2.o
LOAD ./arduino/HardwareSerial3.o
LOAD ./arduino/IPAddress.o
LOAD ./arduino/Print.o
LOAD ./arduino/Stream.o
LOAD ./arduino/Tone.o
LOAD ./arduino/USBCore.o
LOAD ./arduino/WInterrupts.o
LOAD ./arduino/WMath.o
LOAD ./arduino/WString.o
LOAD ./arduino/hooks.o
LOAD ./arduino/main.o
LOAD ./arduino/new.o
LOAD ./arduino/wiring.o
LOAD ./arduino/wiring_analog.o
LOAD ./arduino/wiring_digital.o
LOAD ./arduino/wiring_pulse.o
LOAD ./arduino/wiring_shift.o
LOAD ./main.o
LOAD c:/program files/arduino/hardware/tools/avr/bin/../lib/gcc/avr/4.3.2/avr6\libgcc.a
LOAD c:/program files/arduino/hardware/tools/avr/bin/../lib/gcc/avr/4.3.2/../../../../avr/lib/avr6\libm.a
LOAD c:/program files/arduino/hardware/tools/avr/bin/../lib/gcc/avr/4.3.2/avr6\libgcc.a
LOAD c:/program files/arduino/hardware/tools/avr/bin/../lib/gcc/avr/4.3.2/../../../../avr/lib/avr6\libc.a
LOAD c:/program files/arduino/hardware/tools/avr/bin/../lib/gcc/avr/4.3.2/avr6\libgcc.a

.hash
 *(.hash)

.dynsym
 *(.dynsym)

.dynstr
 *(.dynstr)

.gnu.version
 *(.gnu.version)

.gnu.version_d
 *(.gnu.version_d)

.gnu.version_r
 *(.gnu.version_r)

.rel.init
 *(.rel.init)

.rela.init
 *(.rela.init)

.rel.text
 *(.rel.text)
 *(.rel.text.*)
 *(.rel.gnu.linkonce.t*)

.rela.text
 *(.rela.text)
 *(.rela.text.*)
 *(.rela.gnu.linkonce.t*)

.rel.fini
 *(.rel.fini)

.rela.fini
 *(.rela.fini)

.rel.rodata
 *(.rel.rodata)
 *(.rel.rodata.*)
 *(.rel.gnu.linkonce.r*)

.rela.rodata
 *(.rela.rodata)
 *(.rela.rodata.*)
 *(.rela.gnu.linkonce.r*)

.rel.data
 *(.rel.data)
 *(.rel.data.*)
 *(.rel.gnu.linkonce.d*)

.rela.data
 *(.rela.data)
 *(.rela.data.*)
 *(.rela.gnu.linkonce.d*)

.rel.ctors
 *(.rel.ctors)

.rela.ctors
 *(.rela.ctors)

.rel.dtors
 *(.rel.dtors)

.rela.dtors
 *(.rela.dtors)

.rel.got
 *(.rel.got)

.rela.got
 *(.rela.got)

.rel.bss
 *(.rel.bss)

.rela.bss
 *(.rela.bss)

.rel.plt
 *(.rel.plt)

.rela.plt
 *(.rela.plt)

.text           0x00000000     0x204c
 *(.vectors)
 .vectors       0x00000000       0xe4 c:/program files/arduino/hardware/tools/avr/bin/../lib/gcc/avr/4.3.2/../../../../avr/lib/avr6/crtm2560.o
                0x00000000                __vectors
                0x00000000                __vector_default
 *(.vectors)
 *(.progmem.gcc*)
 *(.progmem*)
 .progmem.data  0x000000e4        0x1 ./arduino/Tone.o
 .progmem.data  0x000000e5      0x120 ./arduino/wiring_digital.o
                0x000000e5                port_to_mode_PGM
                0x00000133                digital_pin_to_port_PGM
                0x00000179                digital_pin_to_bit_mask_PGM
                0x000000ff                port_to_output_PGM
                0x00000119                port_to_input_PGM
                0x000001bf                digital_pin_to_timer_PGM
                0x00000206                . = ALIGN (0x2)
 *fill*         0x00000205        0x1 00
                0x00000206                __trampolines_start = .
 *(.trampolines)
 .trampolines   0x00000206        0x0 linker stubs
 *(.trampolines*)
                0x00000206                __trampolines_end = .
 *(.jumptables)
 *(.jumptables*)
 *(.lowtext)
 *(.lowtext*)
                0x00000206                __ctors_start = .
 *(.ctors)
 .ctors         0x00000206        0x2 ./arduino/HardwareSerial0.o
 .ctors         0x00000208        0x2 ./arduino/HardwareSerial1.o
 .ctors         0x0000020a        0x2 ./arduino/HardwareSerial2.o
 .ctors         0x0000020c        0x2 ./arduino/HardwareSerial3.o
 .ctors         0x0000020e        0x2 ./arduino/IPAddress.o
                0x00000210                __ctors_end = .
                0x00000210                __dtors_start = .
 *(.dtors)
                0x00000210                __dtors_end = .
 SORT(*)(.ctors)
 SORT(*)(.dtors)
 *(.init0)
 .init0         0x00000210        0x0 c:/program files/arduino/hardware/tools/avr/bin/../lib/gcc/avr/4.3.2/../../../../avr/lib/avr6/crtm2560.o
                0x00000210                __init
 *(.init0)
 *(.init1)
 *(.init1)
 *(.init2)
 .init2         0x00000210       0x10 c:/program files/arduino/hardware/tools/avr/bin/../lib/gcc/avr/4.3.2/../../../../avr/lib/avr6/crtm2560.o
 *(.init2)
 *(.init3)
 *(.init3)
 *(.init4)
 .init4         0x00000220       0x1c c:/program files/arduino/hardware/tools/avr/bin/../lib/gcc/avr/4.3.2/../../../../avr/lib/avr6/crtm2560.o
                0x00000220                __do_copy_data
 .init4         0x0000023c       0x10 c:/program files/arduino/hardware/tools/avr/bin/../lib/gcc/avr/4.3.2/avr6\libgcc.a(_clear_bss.o)
                0x0000023c                __do_clear_bss
 *(.init4)
 *(.init5)
 *(.init5)
 *(.init6)
 .init6         0x0000024c       0x16 c:/program files/arduino/hardware/tools/avr/bin/../lib/gcc/avr/4.3.2/avr6\libgcc.a(_ctors.o)
                0x0000024c                __do_global_ctors
 *(.init6)
 *(.init7)
 *(.init7)
 *(.init8)
 *(.init8)
 *(.init9)
 .init9         0x00000262        0x8 c:/program files/arduino/hardware/tools/avr/bin/../lib/gcc/avr/4.3.2/../../../../avr/lib/avr6/crtm2560.o
 *(.init9)
 *(.text)
 .text          0x0000026a        0x4 c:/program files/arduino/hardware/tools/avr/bin/../lib/gcc/avr/4.3.2/../../../../avr/lib/avr6/crtm2560.o
                0x0000026a                __vector_38
                0x0000026a                __vector_22
                0x0000026a                __vector_28
                0x0000026a                __vector_32
                0x0000026a                __vector_34
                0x0000026a                __vector_24
                0x0000026a                __vector_12
                0x0000026a                __vector_46
                0x0000026a                __bad_interrupt
                0x0000026a                __vector_31
                0x0000026a                __vector_35
                0x0000026a                __vector_39
                0x0000026a                __vector_30
                0x0000026a                __vector_45
                0x0000026a                __vector_11
                0x0000026a                __vector_17
                0x0000026a                __vector_19
                0x0000026a                __vector_56
                0x0000026a                __vector_49
                0x0000026a                __vector_41
                0x0000026a                __vector_43
                0x0000026a                __vector_27
                0x0000026a                __vector_33
                0x0000026a                __vector_47
                0x0000026a                __vector_44
                0x0000026a                __vector_9
                0x0000026a                __vector_21
                0x0000026a                __vector_15
                0x0000026a                __vector_29
                0x0000026a                __vector_40
                0x0000026a                __vector_48
                0x0000026a                __vector_14
                0x0000026a                __vector_53
                0x0000026a                __vector_10
                0x0000026a                __vector_50
                0x0000026a                __vector_16
                0x0000026a                __vector_18
                0x0000026a                __vector_20
                0x0000026a                __vector_42
 .text          0x0000026e       0x12 c:/program files/arduino/hardware/tools/avr/bin/../lib/gcc/avr/4.3.2/../../../../avr/lib/avr6\libc.a(strlen.o)
                0x0000026e                strlen
                0x00000280                . = ALIGN (0x2)
 *(.text.*)
 .text._ZN14HardwareSerial17_tx_udr_empty_irqEv
                0x00000280       0xb0 ./arduino/HardwareSerial.o
                0x00000280                HardwareSerial::_tx_udr_empty_irq()
 .text._ZN14HardwareSerial5beginEmh
                0x00000330      0x164 ./arduino/HardwareSerial.o
                0x00000330                HardwareSerial::begin(unsigned long, unsigned char)
 .text._ZN14HardwareSerial9availableEv
                0x00000494       0x40 ./arduino/HardwareSerial.o
                0x00000494                HardwareSerial::available()
 .text._ZN14HardwareSerial4peekEv
                0x000004d4       0x6c ./arduino/HardwareSerial.o
                0x000004d4                HardwareSerial::peek()
 .text._ZN14HardwareSerial4readEv
                0x00000540       0x80 ./arduino/HardwareSerial.o
                0x00000540                HardwareSerial::read()
 .text._ZN14HardwareSerial5flushEv
                0x000005c0       0xd0 ./arduino/HardwareSerial.o
                0x000005c0                HardwareSerial::flush()
 .text._ZN14HardwareSerial5writeEh
                0x00000690      0x156 ./arduino/HardwareSerial.o
                0x00000690                HardwareSerial::write(unsigned char)
 .text._Z14serialEventRunv
                0x000007e6       0xd2 ./arduino/HardwareSerial.o
                0x000007e6                serialEventRun()
 .text._ZN5PrintC2Ev
                0x000008b8       0x2e ./arduino/HardwareSerial0.o
                0x000008b8                Print::Print()
 .text._ZN6StreamC2Ev
                0x000008e6       0x42 ./arduino/HardwareSerial0.o
                0x000008e6                Stream::Stream()
 .text._ZN14HardwareSerialC1EPVhS1_S1_S1_S1_S1_
                0x00000928       0xce ./arduino/HardwareSerial0.o
                0x00000928                HardwareSerial::HardwareSerial(unsigned char volatile*, unsigned char volatile*, unsigned char volatile*, unsigned char volatile*, unsigned char volatile*, unsigned char volatile*)
 .text._ZN14HardwareSerial16_rx_complete_irqEv
                0x000009f6       0xb0 ./arduino/HardwareSerial0.o
                0x000009f6                HardwareSerial::_rx_complete_irq()
 .text.__vector_25
                0x00000aa6       0x64 ./arduino/HardwareSerial0.o
                0x00000aa6                __vector_25
 .text._Z41__static_initialization_and_destruction_0ii
                0x00000b0a       0x7c ./arduino/HardwareSerial0.o
 .text._GLOBAL__I___vector_25
                0x00000b86       0x1a ./arduino/HardwareSerial0.o
 .text._Z17Serial0_availablev
                0x00000ba0       0x26 ./arduino/HardwareSerial0.o
                0x00000ba0                Serial0_available()
 .text.__vector_26
                0x00000bc6       0x64 ./arduino/HardwareSerial0.o
                0x00000bc6                __vector_26
 .text.__vector_36
                0x00000c2a       0x64 ./arduino/HardwareSerial1.o
                0x00000c2a                __vector_36
 .text._Z41__static_initialization_and_destruction_0ii
                0x00000c8e       0x7c ./arduino/HardwareSerial1.o
 .text._GLOBAL__I___vector_36
                0x00000d0a       0x1a ./arduino/HardwareSerial1.o
 .text._Z17Serial1_availablev
                0x00000d24       0x26 ./arduino/HardwareSerial1.o
                0x00000d24                Serial1_available()
 .text.__vector_37
                0x00000d4a       0x64 ./arduino/HardwareSerial1.o
                0x00000d4a                __vector_37
 .text.__vector_51
                0x00000dae       0x64 ./arduino/HardwareSerial2.o
                0x00000dae                __vector_51
 .text._Z41__static_initialization_and_destruction_0ii
                0x00000e12       0x7c ./arduino/HardwareSerial2.o
 .text._GLOBAL__I___vector_51
                0x00000e8e       0x1a ./arduino/HardwareSerial2.o
 .text._Z17Serial2_availablev
                0x00000ea8       0x26 ./arduino/HardwareSerial2.o
                0x00000ea8                Serial2_available()
 .text.__vector_52
                0x00000ece       0x64 ./arduino/HardwareSerial2.o
                0x00000ece                __vector_52
 .text.__vector_54
                0x00000f32       0x64 ./arduino/HardwareSerial3.o
                0x00000f32                __vector_54
 .text._Z41__static_initialization_and_destruction_0ii
                0x00000f96       0x80 ./arduino/HardwareSerial3.o
 .text._GLOBAL__I___vector_54
                0x00001016       0x1a ./arduino/HardwareSerial3.o
 .text._Z17Serial3_availablev
                0x00001030       0x26 ./arduino/HardwareSerial3.o
                0x00001030                Serial3_available()
 .text.__vector_55
                0x00001056       0x64 ./arduino/HardwareSerial3.o
                0x00001056                __vector_55
 .text._ZN9PrintableC2Ev
                0x000010ba       0x26 ./arduino/IPAddress.o
                0x000010ba                Printable::Printable()
 .text._ZN9IPAddressC1Ehhhh
                0x000010e0       0x62 ./arduino/IPAddress.o
                0x000010e0                IPAddress::IPAddress(unsigned char, unsigned char, unsigned char, unsigned char)
 .text._Z41__static_initialization_and_destruction_0ii
                0x00001142       0x4c ./arduino/IPAddress.o
 .text._GLOBAL__I__ZN9IPAddressC2Ev
                0x0000118e       0x1a ./arduino/IPAddress.o
 .text._ZNK9IPAddress7printToER5Print
                0x000011a8       0xb8 ./arduino/IPAddress.o
                0x000011a8                IPAddress::printTo(Print&) const
 .text._ZN5Print5writeEPKhj
                0x00001260       0x90 ./arduino/Print.o
                0x00001260                Print::write(unsigned char const*, unsigned int)
 .text._ZN5Print5printEc
                0x000012f0       0x36 ./arduino/Print.o
                0x000012f0                Print::print(char)
 .text._ZN5Print5writeEPKc
                0x00001326       0x76 ./arduino/Print.o
                0x00001326                Print::write(char const*)
 .text._ZN5Print11printNumberEmh
                0x0000139c       0xf6 ./arduino/Print.o
                0x0000139c                Print::printNumber(unsigned long, unsigned char)
 .text._ZN5Print5printEmi
                0x00001492       0x7e ./arduino/Print.o
                0x00001492                Print::print(unsigned long, int)
 .text._ZN5Print5printEhi
                0x00001510       0x44 ./arduino/Print.o
                0x00001510                Print::print(unsigned char, int)
 .text._Z12disableTimerh
                0x00001554       0xc6 ./arduino/Tone.o
                0x00001554                disableTimer(unsigned char)
 .text._Z6noToneh
                0x0000161a       0x8c ./arduino/Tone.o
                0x0000161a                noTone(unsigned char)
 .text.__vector_13
                0x000016a6       0xf8 ./arduino/Tone.o
                0x000016a6                __vector_13
 .text.__vector_1
                0x0000179e       0x62 ./arduino/WInterrupts.o
                0x0000179e                __vector_1
 .text.__vector_2
                0x00001800       0x62 ./arduino/WInterrupts.o
                0x00001800                __vector_2
 .text.__vector_3
                0x00001862       0x62 ./arduino/WInterrupts.o
                0x00001862                __vector_3
 .text.__vector_4
                0x000018c4       0x62 ./arduino/WInterrupts.o
                0x000018c4                __vector_4
 .text.__vector_5
                0x00001926       0x62 ./arduino/WInterrupts.o
                0x00001926                __vector_5
 .text.__vector_6
                0x00001988       0x62 ./arduino/WInterrupts.o
                0x00001988                __vector_6
 .text.__vector_7
                0x000019ea       0x62 ./arduino/WInterrupts.o
                0x000019ea                __vector_7
 .text.__vector_8
                0x00001a4c       0x62 ./arduino/WInterrupts.o
                0x00001a4c                __vector_8
 .text.__empty  0x00001aae        0x2 ./arduino/hooks.o
                0x00001aae                yield
 .text.main     0x00001ab0       0x22 ./arduino/main.o
                0x00001ab0                main
 .text.__cxa_pure_virtual
                0x00001ad2        0xe ./arduino/new.o
                0x00001ad2                __cxa_pure_virtual
 .text.__vector_23
                0x00001ae0       0x90 ./arduino/wiring.o
                0x00001ae0                __vector_23
 .text.init     0x00001b70       0xc4 ./arduino/wiring.o
                0x00001b70                init
 .text.delay    0x00001c34       0xd0 ./arduino/wiring.o
                0x00001c34                delay
 .text.pinMode  0x00001d04       0x7e ./arduino/wiring_digital.o
                0x00001d04                pinMode
 .text.turnOffPWM
                0x00001d82       0xe8 ./arduino/wiring_digital.o
 .text.digitalWrite
                0x00001e6a       0x66 ./arduino/wiring_digital.o
                0x00001e6a                digitalWrite
 .text.loop     0x00001ed0       0x36 ./main.o
                0x00001ed0                loop
 .text._ZN14HardwareSerial5beginEm
                0x00001f06       0x40 ./main.o
                0x00001f06                HardwareSerial::begin(unsigned long)
 .text.setup    0x00001f46       0x26 ./main.o
                0x00001f46                setup
 .text.libgcc   0x00001f6c       0x3e c:/program files/arduino/hardware/tools/avr/bin/../lib/gcc/avr/4.3.2/avr6\libgcc.a(_mulsi3.o)
                0x00001f6c                __mulsi3
 .text.libgcc   0x00001faa       0x26 c:/program files/arduino/hardware/tools/avr/bin/../lib/gcc/avr/4.3.2/avr6\libgcc.a(_divmodhi4.o)
                0x00001faa                __divmodhi4
                0x00001faa                _div
 .text.libgcc   0x00001fd0       0x44 c:/program files/arduino/hardware/tools/avr/bin/../lib/gcc/avr/4.3.2/avr6\libgcc.a(_udivmodsi4.o)
                0x00001fd0                __udivmodsi4
 .text.libgcc   0x00002014       0x28 c:/program files/arduino/hardware/tools/avr/bin/../lib/gcc/avr/4.3.2/avr6\libgcc.a(_udivmodhi4.o)
                0x00002014                __udivmodhi4
 .text.libgcc   0x0000203c        0xc c:/program files/arduino/hardware/tools/avr/bin/../lib/gcc/avr/4.3.2/avr6\libgcc.a(_tablejump.o)
                0x00002040                __tablejump__
                0x0000203c                __tablejump2__
                0x00002048                . = ALIGN (0x2)
 *(.fini9)
 .fini9         0x00002048        0x0 c:/program files/arduino/hardware/tools/avr/bin/../lib/gcc/avr/4.3.2/avr6\libgcc.a(_exit.o)
                0x00002048                exit
                0x00002048                _exit
 *(.fini9)
 *(.fini8)
 *(.fini8)
 *(.fini7)
 *(.fini7)
 *(.fini6)
 *(.fini6)
 *(.fini5)
 *(.fini5)
 *(.fini4)
 *(.fini4)
 *(.fini3)
 *(.fini3)
 *(.fini2)
 *(.fini2)
 *(.fini1)
 *(.fini1)
 *(.fini0)
 .fini0         0x00002048        0x4 c:/program files/arduino/hardware/tools/avr/bin/../lib/gcc/avr/4.3.2/avr6\libgcc.a(_exit.o)
 *(.fini0)
                0x0000204c                _etext = .

.data           0x00800200       0x36 load address 0x0000204c
                0x00800200                PROVIDE (__data_start, .)
 *(.data)
 *(.data*)
 .data._ZL9tone_pins
                0x00800200        0x1 ./arduino/Tone.o
 *(.rodata)
 *(.rodata*)
 .rodata._ZTV14HardwareSerial
                0x00800201       0x10 ./arduino/HardwareSerial.o
                0x00800201                vtable for HardwareSerial
 .rodata._ZTV6Stream
                0x00800211       0x10 ./arduino/HardwareSerial0.o
                0x00800211                vtable for Stream
 .rodata._ZTV9IPAddress
                0x00800221        0x6 ./arduino/IPAddress.o
                0x00800221                vtable for IPAddress
 .rodata._ZTV9Printable
                0x00800227        0x6 ./arduino/IPAddress.o
                0x00800227                vtable for Printable
 .rodata._ZTV5Print
                0x0080022d        0x8 ./arduino/Print.o
                0x0080022d                vtable for Print
 *(.gnu.linkonce.d*)
                0x00800236                . = ALIGN (0x2)
 *fill*         0x00800235        0x1 00
                0x00800236                _edata = .
                0x00800236                PROVIDE (__data_end, .)

.bss            0x00800236      0x29a
                0x00800236                PROVIDE (__bss_start, .)
 *(.bss)
 *(.bss*)
 .bss.Serial    0x00800236       0x9d ./arduino/HardwareSerial0.o
                0x00800236                Serial
 .bss.Serial1   0x008002d3       0x9d ./arduino/HardwareSerial1.o
                0x008002d3                Serial1
 .bss.Serial2   0x00800370       0x9d ./arduino/HardwareSerial2.o
                0x00800370                Serial2
 .bss.Serial3   0x0080040d       0x9d ./arduino/HardwareSerial3.o
                0x0080040d                Serial3
 .bss._ZL11INADDR_NONE
                0x008004aa        0x6 ./arduino/IPAddress.o
 .bss.timer2_toggle_count
                0x008004b0        0x4 ./arduino/Tone.o
                0x008004b0                timer2_toggle_count
 .bss.timer2_pin_port
                0x008004b4        0x2 ./arduino/Tone.o
                0x008004b4                timer2_pin_port
 .bss.timer2_pin_mask
                0x008004b6        0x1 ./arduino/Tone.o
                0x008004b6                timer2_pin_mask
 .bss.intFunc   0x008004b7       0x10 ./arduino/WInterrupts.o
 .bss.timer0_overflow_count
                0x008004c7        0x4 ./arduino/wiring.o
                0x008004c7                timer0_overflow_count
 .bss.timer0_millis
                0x008004cb        0x4 ./arduino/wiring.o
                0x008004cb                timer0_millis
 .bss.timer0_fract
                0x008004cf        0x1 ./arduino/wiring.o
 *(COMMON)
                0x008004d0                PROVIDE (__bss_end, .)
                0x0000204c                __data_load_start = LOADADDR (.data)
                0x00002082                __data_load_end = (__data_load_start + SIZEOF (.data))

.noinit         0x008004d0        0x0
                0x008004d0                PROVIDE (__noinit_start, .)
 *(.noinit*)
                0x008004d0                PROVIDE (__noinit_end, .)
                0x008004d0                _end = .
                0x008004d0                PROVIDE (__heap_start, .)

.eeprom         0x00810000        0x0
 *(.eeprom*)
                0x00810000                __eeprom_end = .

.fuse
 *(.fuse)
 *(.lfuse)
 *(.hfuse)
 *(.efuse)

.lock
 *(.lock*)

.signature
 *(.signature*)

.stab
 *(.stab)

.stabstr
 *(.stabstr)

.stab.excl
 *(.stab.excl)

.stab.exclstr
 *(.stab.exclstr)

.stab.index
 *(.stab.index)

.stab.indexstr
 *(.stab.indexstr)

.comment
 *(.comment)

.debug
 *(.debug)

.line
 *(.line)

.debug_srcinfo
 *(.debug_srcinfo)

.debug_sfnames
 *(.debug_sfnames)

.debug_aranges
 *(.debug_aranges)

.debug_pubnames
 *(.debug_pubnames)

.debug_info
 *(.debug_info)
 *(.gnu.linkonce.wi.*)

.debug_abbrev
 *(.debug_abbrev)

.debug_line
 *(.debug_line)

.debug_frame
 *(.debug_frame)

.debug_str
 *(.debug_str)

.debug_loc
 *(.debug_loc)

.debug_macinfo
 *(.debug_macinfo)
OUTPUT(test.elf elf32-avr)
LOAD linker stubs

Cross Reference Table

Symbol                                            File
HardwareSerial::HardwareSerial(unsigned char volatile*, unsigned char volatile*, unsigned char volatile*, unsigned char volatile*, unsigned char volatile*, unsigned char volatile*) ./arduino/HardwareSerial0.o
HardwareSerial::_rx_complete_irq()                ./arduino/HardwareSerial0.o
HardwareSerial::_tx_udr_empty_irq()               ./arduino/HardwareSerial.o
                                                  ./arduino/HardwareSerial3.o
                                                  ./arduino/HardwareSerial2.o
                                                  ./arduino/HardwareSerial1.o
                                                  ./arduino/HardwareSerial0.o
HardwareSerial::available()                       ./arduino/HardwareSerial.o
                                                  ./arduino/HardwareSerial3.o
                                                  ./arduino/HardwareSerial2.o
                                                  ./arduino/HardwareSerial1.o
                                                  ./arduino/HardwareSerial0.o
HardwareSerial::begin(unsigned long)              ./main.o
HardwareSerial::begin(unsigned long, unsigned char) ./arduino/HardwareSerial.o
                                                  ./main.o
HardwareSerial::end()                             ./arduino/HardwareSerial.o
HardwareSerial::flush()                           ./arduino/HardwareSerial.o
HardwareSerial::peek()                            ./arduino/HardwareSerial.o
HardwareSerial::read()                            ./arduino/HardwareSerial.o
HardwareSerial::write(unsigned char)              ./arduino/HardwareSerial.o
IPAddress::IPAddress()                            ./arduino/IPAddress.o
IPAddress::IPAddress()                            ./arduino/IPAddress.o
IPAddress::IPAddress(unsigned char const*)        ./arduino/IPAddress.o
IPAddress::IPAddress(unsigned char const*)        ./arduino/IPAddress.o
IPAddress::IPAddress(unsigned char, unsigned char, unsigned char, unsigned char) ./arduino/IPAddress.o
IPAddress::IPAddress(unsigned char, unsigned char, unsigned char, unsigned char) ./arduino/IPAddress.o
IPAddress::IPAddress(unsigned long)               ./arduino/IPAddress.o
IPAddress::IPAddress(unsigned long)               ./arduino/IPAddress.o
IPAddress::operator=(unsigned char const*)        ./arduino/IPAddress.o
IPAddress::operator=(unsigned long)               ./arduino/IPAddress.o
IPAddress::operator==(unsigned char const*) const ./arduino/IPAddress.o
IPAddress::printTo(Print&) const                  ./arduino/IPAddress.o
Print::Print()                                    ./arduino/HardwareSerial0.o
Print::print(Printable const&)                    ./arduino/Print.o
Print::print(String const&)                       ./arduino/Print.o
Print::print(__FlashStringHelper const*)          ./arduino/Print.o
Print::print(char const*)                         ./arduino/Print.o
Print::print(char)                                ./arduino/Print.o
                                                  ./arduino/IPAddress.o
Print::print(double, int)                         ./arduino/Print.o
Print::print(int, int)                            ./arduino/Print.o
Print::print(long, int)                           ./arduino/Print.o
Print::print(unsigned char, int)                  ./arduino/Print.o
                                                  ./arduino/IPAddress.o
Print::print(unsigned int, int)                   ./arduino/Print.o
Print::print(unsigned long, int)                  ./arduino/Print.o
Print::printFloat(double, unsigned char)          ./arduino/Print.o
Print::printNumber(unsigned long, unsigned char)  ./arduino/Print.o
Print::println()                                  ./arduino/Print.o
Print::println(Printable const&)                  ./arduino/Print.o
Print::println(String const&)                     ./arduino/Print.o
Print::println(__FlashStringHelper const*)        ./arduino/Print.o
Print::println(char const*)                       ./arduino/Print.o
Print::println(char)                              ./arduino/Print.o
Print::println(double, int)                       ./arduino/Print.o
Print::println(int, int)                          ./arduino/Print.o
Print::println(long, int)                         ./arduino/Print.o
Print::println(unsigned char, int)                ./arduino/Print.o
Print::println(unsigned int, int)                 ./arduino/Print.o
Print::println(unsigned long, int)                ./arduino/Print.o
Print::write(char const*)                         ./arduino/Print.o
Print::write(char const*, unsigned int)           ./arduino/Print.o
Print::write(unsigned char const*, unsigned int)  ./arduino/Print.o
                                                  ./arduino/HardwareSerial3.o
                                                  ./arduino/HardwareSerial2.o
                                                  ./arduino/HardwareSerial1.o
                                                  ./arduino/HardwareSerial0.o
                                                  ./arduino/HardwareSerial.o
Printable::Printable()                            ./arduino/IPAddress.o
Serial                                            ./arduino/HardwareSerial0.o
Serial0_available()                               ./arduino/HardwareSerial0.o
                                                  ./arduino/HardwareSerial.o
Serial1                                           ./arduino/HardwareSerial1.o
                                                  ./main.o
Serial1_available()                               ./arduino/HardwareSerial1.o
                                                  ./arduino/HardwareSerial.o
Serial2                                           ./arduino/HardwareSerial2.o
Serial2_available()                               ./arduino/HardwareSerial2.o
                                                  ./arduino/HardwareSerial.o
Serial3                                           ./arduino/HardwareSerial3.o
Serial3_available()                               ./arduino/HardwareSerial3.o
                                                  ./arduino/HardwareSerial.o
Stream::Stream()                                  ./arduino/HardwareSerial0.o
Stream::find(char*)                               ./arduino/Stream.o
Stream::find(char*, unsigned int)                 ./arduino/Stream.o
Stream::findUntil(char*, char*)                   ./arduino/Stream.o
Stream::findUntil(char*, unsigned int, char*, unsigned int) ./arduino/Stream.o
Stream::parseFloat()                              ./arduino/Stream.o
Stream::parseFloat(char)                          ./arduino/Stream.o
Stream::parseInt()                                ./arduino/Stream.o
Stream::parseInt(char)                            ./arduino/Stream.o
Stream::peekNextDigit()                           ./arduino/Stream.o
Stream::readBytes(char*, unsigned int)            ./arduino/Stream.o
Stream::readBytesUntil(char, char*, unsigned int) ./arduino/Stream.o
Stream::readString()                              ./arduino/Stream.o
Stream::readStringUntil(char)                     ./arduino/Stream.o
Stream::setTimeout(unsigned long)                 ./arduino/Stream.o
Stream::timedPeek()                               ./arduino/Stream.o
Stream::timedRead()                               ./arduino/Stream.o
String::String(String const&)                     ./arduino/WString.o
String::String(String const&)                     ./arduino/WString.o
String::String(__FlashStringHelper const*)        ./arduino/WString.o
String::String(__FlashStringHelper const*)        ./arduino/WString.o
String::String(char const*)                       ./arduino/WString.o
String::String(char const*)                       ./arduino/WString.o
                                                  ./arduino/Stream.o
String::String(char)                              ./arduino/WString.o
String::String(char)                              ./arduino/WString.o
String::String(double, unsigned char)             ./arduino/WString.o
String::String(double, unsigned char)             ./arduino/WString.o
String::String(float, unsigned char)              ./arduino/WString.o
String::String(float, unsigned char)              ./arduino/WString.o
String::String(int, unsigned char)                ./arduino/WString.o
String::String(int, unsigned char)                ./arduino/WString.o
String::String(long, unsigned char)               ./arduino/WString.o
String::String(long, unsigned char)               ./arduino/WString.o
String::String(unsigned char, unsigned char)      ./arduino/WString.o
String::String(unsigned char, unsigned char)      ./arduino/WString.o
String::String(unsigned int, unsigned char)       ./arduino/WString.o
String::String(unsigned int, unsigned char)       ./arduino/WString.o
String::String(unsigned long, unsigned char)      ./arduino/WString.o
String::String(unsigned long, unsigned char)      ./arduino/WString.o
String::c_str() const                             ./arduino/Print.o
String::changeBuffer(unsigned int)                ./arduino/WString.o
String::charAt(unsigned int) const                ./arduino/WString.o
String::compareTo(String const&) const            ./arduino/WString.o
String::concat(String const&)                     ./arduino/WString.o
String::concat(__FlashStringHelper const*)        ./arduino/WString.o
String::concat(char const*)                       ./arduino/WString.o
String::concat(char const*, unsigned int)         ./arduino/WString.o
String::concat(char)                              ./arduino/WString.o
                                                  ./arduino/Stream.o
String::concat(double)                            ./arduino/WString.o
String::concat(float)                             ./arduino/WString.o
String::concat(int)                               ./arduino/WString.o
String::concat(long)                              ./arduino/WString.o
String::concat(unsigned char)                     ./arduino/WString.o
String::concat(unsigned int)                      ./arduino/WString.o
String::concat(unsigned long)                     ./arduino/WString.o
String::copy(__FlashStringHelper const*, unsigned int) ./arduino/WString.o
String::copy(char const*, unsigned int)           ./arduino/WString.o
String::endsWith(String const&) const             ./arduino/WString.o
String::equals(String const&) const               ./arduino/WString.o
String::equals(char const*) const                 ./arduino/WString.o
String::equalsIgnoreCase(String const&) const     ./arduino/WString.o
String::getBytes(unsigned char*, unsigned int, unsigned int) const ./arduino/WString.o
String::indexOf(String const&) const              ./arduino/WString.o
String::indexOf(String const&, unsigned int) const ./arduino/WString.o
String::indexOf(char) const                       ./arduino/WString.o
String::indexOf(char, unsigned int) const         ./arduino/WString.o
String::init()                                    ./arduino/WString.o
String::invalidate()                              ./arduino/WString.o
String::lastIndexOf(String const&) const          ./arduino/WString.o
String::lastIndexOf(String const&, unsigned int) const ./arduino/WString.o
String::lastIndexOf(char) const                   ./arduino/WString.o
String::lastIndexOf(char, unsigned int) const     ./arduino/WString.o
String::length() const                            ./arduino/Print.o
String::operator+=(char)                          ./arduino/Stream.o
String::operator<(String const&) const            ./arduino/WString.o
String::operator<=(String const&) const           ./arduino/WString.o
String::operator=(String const&)                  ./arduino/WString.o
String::operator=(__FlashStringHelper const*)     ./arduino/WString.o
String::operator=(char const*)                    ./arduino/WString.o
String::operator>(String const&) const            ./arduino/WString.o
String::operator>=(String const&) const           ./arduino/WString.o
String::operator[](unsigned int)                  ./arduino/WString.o
String::operator[](unsigned int) const            ./arduino/WString.o
String::remove(unsigned int)                      ./arduino/WString.o
String::remove(unsigned int, unsigned int)        ./arduino/WString.o
String::replace(String const&, String const&)     ./arduino/WString.o
String::replace(char, char)                       ./arduino/WString.o
String::reserve(unsigned int)                     ./arduino/WString.o
String::setCharAt(unsigned int, char)             ./arduino/WString.o
String::startsWith(String const&) const           ./arduino/WString.o
String::startsWith(String const&, unsigned int) const ./arduino/WString.o
String::substring(unsigned int, unsigned int) const ./arduino/WString.o
String::toFloat() const                           ./arduino/WString.o
String::toInt() const                             ./arduino/WString.o
String::toLowerCase()                             ./arduino/WString.o
String::toUpperCase()                             ./arduino/WString.o
String::trim()                                    ./arduino/WString.o
String::~String()                                 ./arduino/WString.o
String::~String()                                 ./arduino/WString.o
__addsf3                                          c:/program files/arduino/hardware/tools/avr/bin/../lib/gcc/avr/4.3.2/avr6\libgcc.a(_addsub_sf.o)
                                                  ./arduino/Print.o
__bad_interrupt                                   c:/program files/arduino/hardware/tools/avr/bin/../lib/gcc/avr/4.3.2/../../../../avr/lib/avr6/crtm2560.o
__brkval                                          ./arduino/avr-libc/realloc.o
                                                  ./arduino/avr-libc/malloc.o
__bss_end                                         c:/program files/arduino/hardware/tools/avr/bin/../lib/gcc/avr/4.3.2/avr6\libgcc.a(_clear_bss.o)
__bss_start                                       c:/program files/arduino/hardware/tools/avr/bin/../lib/gcc/avr/4.3.2/avr6\libgcc.a(_clear_bss.o)
__clz_tab                                         c:/program files/arduino/hardware/tools/avr/bin/../lib/gcc/avr/4.3.2/avr6\libgcc.a(_clz.o)
                                                  c:/program files/arduino/hardware/tools/avr/bin/../lib/gcc/avr/4.3.2/avr6\libgcc.a(_clzsi2.o)
__clzsi2                                          c:/program files/arduino/hardware/tools/avr/bin/../lib/gcc/avr/4.3.2/avr6\libgcc.a(_clzsi2.o)
                                                  c:/program files/arduino/hardware/tools/avr/bin/../lib/gcc/avr/4.3.2/avr6\libgcc.a(_usi_to_sf.o)
                                                  c:/program files/arduino/hardware/tools/avr/bin/../lib/gcc/avr/4.3.2/avr6\libgcc.a(_si_to_sf.o)
__cmpsf2                                          c:/program files/arduino/hardware/tools/avr/bin/../lib/gcc/avr/4.3.2/../../../../avr/lib/avr6\libc.a(cmpsf2.o)
__ctors_end                                       c:/program files/arduino/hardware/tools/avr/bin/../lib/gcc/avr/4.3.2/avr6\libgcc.a(_ctors.o)
__ctors_start                                     c:/program files/arduino/hardware/tools/avr/bin/../lib/gcc/avr/4.3.2/avr6\libgcc.a(_ctors.o)
__ctype_isfalse                                   c:/program files/arduino/hardware/tools/avr/bin/../lib/gcc/avr/4.3.2/../../../../avr/lib/avr6\libc.a(cty_isfalse.o)
                                                  c:/program files/arduino/hardware/tools/avr/bin/../lib/gcc/avr/4.3.2/../../../../avr/lib/avr6\libc.a(isspace.o)
__ctype_istrue                                    c:/program files/arduino/hardware/tools/avr/bin/../lib/gcc/avr/4.3.2/../../../../avr/lib/avr6\libc.a(cty_isfalse.o)
__cxa_guard_abort                                 ./arduino/new.o
__cxa_guard_acquire                               ./arduino/new.o
__cxa_guard_release                               ./arduino/new.o
__cxa_pure_virtual                                ./arduino/new.o
                                                  ./arduino/Print.o
                                                  ./arduino/IPAddress.o
                                                  ./arduino/HardwareSerial3.o
                                                  ./arduino/HardwareSerial2.o
                                                  ./arduino/HardwareSerial1.o
                                                  ./arduino/HardwareSerial0.o
__data_end                                        c:/program files/arduino/hardware/tools/avr/bin/../lib/gcc/avr/4.3.2/../../../../avr/lib/avr6/crtm2560.o
__data_load_start                                 c:/program files/arduino/hardware/tools/avr/bin/../lib/gcc/avr/4.3.2/../../../../avr/lib/avr6/crtm2560.o
__data_start                                      c:/program files/arduino/hardware/tools/avr/bin/../lib/gcc/avr/4.3.2/../../../../avr/lib/avr6/crtm2560.o
__divmodhi4                                       c:/program files/arduino/hardware/tools/avr/bin/../lib/gcc/avr/4.3.2/avr6\libgcc.a(_divmodhi4.o)
                                                  ./arduino/HardwareSerial.o
__divmodsi4                                       c:/program files/arduino/hardware/tools/avr/bin/../lib/gcc/avr/4.3.2/avr6\libgcc.a(_divmodsi4.o)
                                                  c:/program files/arduino/hardware/tools/avr/bin/../lib/gcc/avr/4.3.2/../../../../avr/lib/avr6\libc.a(random.o)
                                                  ./arduino/WMath.o
__divsf3                                          c:/program files/arduino/hardware/tools/avr/bin/../lib/gcc/avr/4.3.2/avr6\libgcc.a(_div_sf.o)
                                                  ./arduino/Print.o
__do_clear_bss                                    c:/program files/arduino/hardware/tools/avr/bin/../lib/gcc/avr/4.3.2/avr6\libgcc.a(_clear_bss.o)
                                                  c:/program files/arduino/hardware/tools/avr/bin/../lib/gcc/avr/4.3.2/../../../../avr/lib/avr6\libc.a(errno.o)
                                                  c:/program files/arduino/hardware/tools/avr/bin/../lib/gcc/avr/4.3.2/../../../../avr/lib/avr6\libc.a(strtod.o)
                                                  c:/program files/arduino/hardware/tools/avr/bin/../lib/gcc/avr/4.3.2/../../../../avr/lib/avr6\libc.a(dtoa_prf.o)
                                                  c:/program files/arduino/hardware/tools/avr/bin/../lib/gcc/avr/4.3.2/../../../../avr/lib/avr6\libc.a(random.o)
                                                  c:/program files/arduino/hardware/tools/avr/bin/../lib/gcc/avr/4.3.2/../../../../avr/lib/avr6\libc.a(dtostrf.o)
                                                  c:/program files/arduino/hardware/tools/avr/bin/../lib/gcc/avr/4.3.2/avr6\libgcc.a(_clz.o)
                                                  c:/program files/arduino/hardware/tools/avr/bin/../lib/gcc/avr/4.3.2/avr6\libgcc.a(_fpcmp_parts_sf.o)
                                                  c:/program files/arduino/hardware/tools/avr/bin/../lib/gcc/avr/4.3.2/avr6\libgcc.a(_unpack_sf.o)
                                                  c:/program files/arduino/hardware/tools/avr/bin/../lib/gcc/avr/4.3.2/avr6\libgcc.a(_pack_sf.o)
                                                  c:/program files/arduino/hardware/tools/avr/bin/../lib/gcc/avr/4.3.2/avr6\libgcc.a(_clzsi2.o)
                                                  c:/program files/arduino/hardware/tools/avr/bin/../lib/gcc/avr/4.3.2/avr6\libgcc.a(_usi_to_sf.o)
                                                  c:/program files/arduino/hardware/tools/avr/bin/../lib/gcc/avr/4.3.2/avr6\libgcc.a(_thenan_sf.o)
                                                  c:/program files/arduino/hardware/tools/avr/bin/../lib/gcc/avr/4.3.2/avr6\libgcc.a(_sf_to_si.o)
                                                  c:/program files/arduino/hardware/tools/avr/bin/../lib/gcc/avr/4.3.2/avr6\libgcc.a(_si_to_sf.o)
                                                  c:/program files/arduino/hardware/tools/avr/bin/../lib/gcc/avr/4.3.2/avr6\libgcc.a(_unord_sf.o)
                                                  c:/program files/arduino/hardware/tools/avr/bin/../lib/gcc/avr/4.3.2/avr6\libgcc.a(_le_sf.o)
                                                  c:/program files/arduino/hardware/tools/avr/bin/../lib/gcc/avr/4.3.2/avr6\libgcc.a(_lt_sf.o)
                                                  c:/program files/arduino/hardware/tools/avr/bin/../lib/gcc/avr/4.3.2/avr6\libgcc.a(_ge_sf.o)
                                                  c:/program files/arduino/hardware/tools/avr/bin/../lib/gcc/avr/4.3.2/avr6\libgcc.a(_gt_sf.o)
                                                  c:/program files/arduino/hardware/tools/avr/bin/../lib/gcc/avr/4.3.2/avr6\libgcc.a(_div_sf.o)
                                                  c:/program files/arduino/hardware/tools/avr/bin/../lib/gcc/avr/4.3.2/avr6\libgcc.a(_mul_sf.o)
                                                  c:/program files/arduino/hardware/tools/avr/bin/../lib/gcc/avr/4.3.2/avr6\libgcc.a(_addsub_sf.o)
                                                  c:/program files/arduino/hardware/tools/avr/bin/../lib/gcc/avr/4.3.2/avr6\libgcc.a(_fixunssfsi.o)
                                                  ./main.o
                                                  ./arduino/wiring_shift.o
                                                  ./arduino/wiring_pulse.o
                                                  ./arduino/wiring_digital.o
                                                  ./arduino/wiring_analog.o
                                                  ./arduino/wiring.o
                                                  ./arduino/new.o
                                                  ./arduino/main.o
                                                  ./arduino/hooks.o
                                                  ./arduino/WString.o
                                                  ./arduino/WMath.o
                                                  ./arduino/WInterrupts.o
                                                  ./arduino/USBCore.o
                                                  ./arduino/Tone.o
                                                  ./arduino/Stream.o
                                                  ./arduino/Print.o
                                                  ./arduino/IPAddress.o
                                                  ./arduino/HardwareSerial3.o
                                                  ./arduino/HardwareSerial2.o
                                                  ./arduino/HardwareSerial1.o
                                                  ./arduino/HardwareSerial0.o
                                                  ./arduino/HardwareSerial.o
                                                  ./arduino/HID.o
                                                  ./arduino/CDC.o
                                                  ./arduino/avr-libc/realloc.o
                                                  ./arduino/avr-libc/malloc.o
__do_copy_data                                    c:/program files/arduino/hardware/tools/avr/bin/../lib/gcc/avr/4.3.2/../../../../avr/lib/avr6/crtm2560.o
                                                  c:/program files/arduino/hardware/tools/avr/bin/../lib/gcc/avr/4.3.2/../../../../avr/lib/avr6\libc.a(errno.o)
                                                  c:/program files/arduino/hardware/tools/avr/bin/../lib/gcc/avr/4.3.2/../../../../avr/lib/avr6\libc.a(strtod.o)
                                                  c:/program files/arduino/hardware/tools/avr/bin/../lib/gcc/avr/4.3.2/../../../../avr/lib/avr6\libc.a(dtoa_prf.o)
                                                  c:/program files/arduino/hardware/tools/avr/bin/../lib/gcc/avr/4.3.2/../../../../avr/lib/avr6\libc.a(random.o)
                                                  c:/program files/arduino/hardware/tools/avr/bin/../lib/gcc/avr/4.3.2/../../../../avr/lib/avr6\libc.a(dtostrf.o)
                                                  c:/program files/arduino/hardware/tools/avr/bin/../lib/gcc/avr/4.3.2/avr6\libgcc.a(_clz.o)
                                                  c:/program files/arduino/hardware/tools/avr/bin/../lib/gcc/avr/4.3.2/avr6\libgcc.a(_fpcmp_parts_sf.o)
                                                  c:/program files/arduino/hardware/tools/avr/bin/../lib/gcc/avr/4.3.2/avr6\libgcc.a(_unpack_sf.o)
                                                  c:/program files/arduino/hardware/tools/avr/bin/../lib/gcc/avr/4.3.2/avr6\libgcc.a(_pack_sf.o)
                                                  c:/program files/arduino/hardware/tools/avr/bin/../lib/gcc/avr/4.3.2/avr6\libgcc.a(_clzsi2.o)
                                                  c:/program files/arduino/hardware/tools/avr/bin/../lib/gcc/avr/4.3.2/avr6\libgcc.a(_usi_to_sf.o)
                                                  c:/program files/arduino/hardware/tools/avr/bin/../lib/gcc/avr/4.3.2/avr6\libgcc.a(_thenan_sf.o)
                                                  c:/program files/arduino/hardware/tools/avr/bin/../lib/gcc/avr/4.3.2/avr6\libgcc.a(_sf_to_si.o)
                                                  c:/program files/arduino/hardware/tools/avr/bin/../lib/gcc/avr/4.3.2/avr6\libgcc.a(_si_to_sf.o)
                                                  c:/program files/arduino/hardware/tools/avr/bin/../lib/gcc/avr/4.3.2/avr6\libgcc.a(_unord_sf.o)
                                                  c:/program files/arduino/hardware/tools/avr/bin/../lib/gcc/avr/4.3.2/avr6\libgcc.a(_le_sf.o)
                                                  c:/program files/arduino/hardware/tools/avr/bin/../lib/gcc/avr/4.3.2/avr6\libgcc.a(_lt_sf.o)
                                                  c:/program files/arduino/hardware/tools/avr/bin/../lib/gcc/avr/4.3.2/avr6\libgcc.a(_ge_sf.o)
                                                  c:/program files/arduino/hardware/tools/avr/bin/../lib/gcc/avr/4.3.2/avr6\libgcc.a(_gt_sf.o)
                                                  c:/program files/arduino/hardware/tools/avr/bin/../lib/gcc/avr/4.3.2/avr6\libgcc.a(_div_sf.o)
                                                  c:/program files/arduino/hardware/tools/avr/bin/../lib/gcc/avr/4.3.2/avr6\libgcc.a(_mul_sf.o)
                                                  c:/program files/arduino/hardware/tools/avr/bin/../lib/gcc/avr/4.3.2/avr6\libgcc.a(_addsub_sf.o)
                                                  c:/program files/arduino/hardware/tools/avr/bin/../lib/gcc/avr/4.3.2/avr6\libgcc.a(_fixunssfsi.o)
                                                  ./main.o
                                                  ./arduino/wiring_shift.o
                                                  ./arduino/wiring_pulse.o
                                                  ./arduino/wiring_digital.o
                                                  ./arduino/wiring_analog.o
                                                  ./arduino/wiring.o
                                                  ./arduino/new.o
                                                  ./arduino/main.o
                                                  ./arduino/hooks.o
                                                  ./arduino/WString.o
                                                  ./arduino/WMath.o
                                                  ./arduino/WInterrupts.o
                                                  ./arduino/USBCore.o
                                                  ./arduino/Tone.o
                                                  ./arduino/Stream.o
                                                  ./arduino/Print.o
                                                  ./arduino/IPAddress.o
                                                  ./arduino/HardwareSerial3.o
                                                  ./arduino/HardwareSerial2.o
                                                  ./arduino/HardwareSerial1.o
                                                  ./arduino/HardwareSerial0.o
                                                  ./arduino/HardwareSerial.o
                                                  ./arduino/HID.o
                                                  ./arduino/CDC.o
                                                  ./arduino/avr-libc/realloc.o
                                                  ./arduino/avr-libc/malloc.o
__do_global_ctors                                 c:/program files/arduino/hardware/tools/avr/bin/../lib/gcc/avr/4.3.2/avr6\libgcc.a(_ctors.o)
                                                  ./arduino/IPAddress.o
                                                  ./arduino/HardwareSerial3.o
                                                  ./arduino/HardwareSerial2.o
                                                  ./arduino/HardwareSerial1.o
                                                  ./arduino/HardwareSerial0.o
__epilogue_restores__                             c:/program files/arduino/hardware/tools/avr/bin/../lib/gcc/avr/4.3.2/avr6\libgcc.a(_epilogue.o)
                                                  c:/program files/arduino/hardware/tools/avr/bin/../lib/gcc/avr/4.3.2/../../../../avr/lib/avr6\libc.a(strtod.o)
                                                  c:/program files/arduino/hardware/tools/avr/bin/../lib/gcc/avr/4.3.2/../../../../avr/lib/avr6\libc.a(dtoa_prf.o)
                                                  c:/program files/arduino/hardware/tools/avr/bin/../lib/gcc/avr/4.3.2/../../../../avr/lib/avr6\libc.a(random.o)
                                                  c:/program files/arduino/hardware/tools/avr/bin/../lib/gcc/avr/4.3.2/avr6\libgcc.a(_usi_to_sf.o)
                                                  c:/program files/arduino/hardware/tools/avr/bin/../lib/gcc/avr/4.3.2/avr6\libgcc.a(_sf_to_si.o)
                                                  c:/program files/arduino/hardware/tools/avr/bin/../lib/gcc/avr/4.3.2/avr6\libgcc.a(_si_to_sf.o)
                                                  c:/program files/arduino/hardware/tools/avr/bin/../lib/gcc/avr/4.3.2/avr6\libgcc.a(_unord_sf.o)
                                                  c:/program files/arduino/hardware/tools/avr/bin/../lib/gcc/avr/4.3.2/avr6\libgcc.a(_le_sf.o)
                                                  c:/program files/arduino/hardware/tools/avr/bin/../lib/gcc/avr/4.3.2/avr6\libgcc.a(_lt_sf.o)
                                                  c:/program files/arduino/hardware/tools/avr/bin/../lib/gcc/avr/4.3.2/avr6\libgcc.a(_ge_sf.o)
                                                  c:/program files/arduino/hardware/tools/avr/bin/../lib/gcc/avr/4.3.2/avr6\libgcc.a(_gt_sf.o)
                                                  c:/program files/arduino/hardware/tools/avr/bin/../lib/gcc/avr/4.3.2/avr6\libgcc.a(_div_sf.o)
                                                  c:/program files/arduino/hardware/tools/avr/bin/../lib/gcc/avr/4.3.2/avr6\libgcc.a(_mul_sf.o)
                                                  c:/program files/arduino/hardware/tools/avr/bin/../lib/gcc/avr/4.3.2/avr6\libgcc.a(_addsub_sf.o)
__eqsf2                                           c:/program files/arduino/hardware/tools/avr/bin/../lib/gcc/avr/4.3.2/../../../../avr/lib/avr6\libc.a(cmpsf2.o)
                                                  c:/program files/arduino/hardware/tools/avr/bin/../lib/gcc/avr/4.3.2/../../../../avr/lib/avr6\libc.a(strtod.o)
__fixsfsi                                         c:/program files/arduino/hardware/tools/avr/bin/../lib/gcc/avr/4.3.2/avr6\libgcc.a(_sf_to_si.o)
                                                  c:/program files/arduino/hardware/tools/avr/bin/../lib/gcc/avr/4.3.2/avr6\libgcc.a(_fixunssfsi.o)
                                                  ./arduino/Print.o
__fixunssfsi                                      c:/program files/arduino/hardware/tools/avr/bin/../lib/gcc/avr/4.3.2/avr6\libgcc.a(_fixunssfsi.o)
                                                  ./arduino/Print.o
__floatsisf                                       c:/program files/arduino/hardware/tools/avr/bin/../lib/gcc/avr/4.3.2/avr6\libgcc.a(_si_to_sf.o)
                                                  ./arduino/Stream.o
                                                  ./arduino/Print.o
__floatunsisf                                     c:/program files/arduino/hardware/tools/avr/bin/../lib/gcc/avr/4.3.2/avr6\libgcc.a(_usi_to_sf.o)
                                                  c:/program files/arduino/hardware/tools/avr/bin/../lib/gcc/avr/4.3.2/../../../../avr/lib/avr6\libc.a(strtod.o)
                                                  ./arduino/Print.o
__flp                                             ./arduino/avr-libc/realloc.o
                                                  ./arduino/avr-libc/malloc.o
__fp_cmp                                          c:/program files/arduino/hardware/tools/avr/bin/../lib/gcc/avr/4.3.2/../../../../avr/lib/avr6\libc.a(fp_cmp.o)
                                                  c:/program files/arduino/hardware/tools/avr/bin/../lib/gcc/avr/4.3.2/../../../../avr/lib/avr6\libc.a(cmpsf2.o)
__fpcmp_parts_f                                   c:/program files/arduino/hardware/tools/avr/bin/../lib/gcc/avr/4.3.2/avr6\libgcc.a(_fpcmp_parts_sf.o)
                                                  c:/program files/arduino/hardware/tools/avr/bin/../lib/gcc/avr/4.3.2/avr6\libgcc.a(_le_sf.o)
                                                  c:/program files/arduino/hardware/tools/avr/bin/../lib/gcc/avr/4.3.2/avr6\libgcc.a(_lt_sf.o)
                                                  c:/program files/arduino/hardware/tools/avr/bin/../lib/gcc/avr/4.3.2/avr6\libgcc.a(_ge_sf.o)
                                                  c:/program files/arduino/hardware/tools/avr/bin/../lib/gcc/avr/4.3.2/avr6\libgcc.a(_gt_sf.o)
__ftoa_engine                                     c:/program files/arduino/hardware/tools/avr/bin/../lib/gcc/avr/4.3.2/../../../../avr/lib/avr6\libc.a(ftoa_engine.o)
                                                  c:/program files/arduino/hardware/tools/avr/bin/../lib/gcc/avr/4.3.2/../../../../avr/lib/avr6\libc.a(dtoa_prf.o)
__gesf2                                           c:/program files/arduino/hardware/tools/avr/bin/../lib/gcc/avr/4.3.2/avr6\libgcc.a(_ge_sf.o)
                                                  c:/program files/arduino/hardware/tools/avr/bin/../lib/gcc/avr/4.3.2/avr6\libgcc.a(_fixunssfsi.o)
__gtsf2                                           c:/program files/arduino/hardware/tools/avr/bin/../lib/gcc/avr/4.3.2/avr6\libgcc.a(_gt_sf.o)
                                                  ./arduino/Print.o
__heap_end                                        c:/program files/arduino/hardware/tools/avr/bin/../lib/gcc/avr/4.3.2/../../../../avr/lib/avr6/crtm2560.o
                                                  ./arduino/avr-libc/malloc.o
__heap_start                                      ./arduino/avr-libc/malloc.o
__init                                            c:/program files/arduino/hardware/tools/avr/bin/../lib/gcc/avr/4.3.2/../../../../avr/lib/avr6/crtm2560.o
__lesf2                                           c:/program files/arduino/hardware/tools/avr/bin/../lib/gcc/avr/4.3.2/../../../../avr/lib/avr6\libc.a(cmpsf2.o)
                                                  c:/program files/arduino/hardware/tools/avr/bin/../lib/gcc/avr/4.3.2/avr6\libgcc.a(_le_sf.o)
                                                  ./arduino/Print.o
__ltsf2                                           c:/program files/arduino/hardware/tools/avr/bin/../lib/gcc/avr/4.3.2/../../../../avr/lib/avr6\libc.a(cmpsf2.o)
                                                  c:/program files/arduino/hardware/tools/avr/bin/../lib/gcc/avr/4.3.2/avr6\libgcc.a(_lt_sf.o)
                                                  ./arduino/Print.o
__malloc_heap_end                                 ./arduino/avr-libc/malloc.o
                                                  ./arduino/avr-libc/realloc.o
__malloc_heap_start                               ./arduino/avr-libc/malloc.o
__malloc_margin                                   ./arduino/avr-libc/malloc.o
                                                  ./arduino/avr-libc/realloc.o
__mulsf3                                          c:/program files/arduino/hardware/tools/avr/bin/../lib/gcc/avr/4.3.2/avr6\libgcc.a(_mul_sf.o)
                                                  c:/program files/arduino/hardware/tools/avr/bin/../lib/gcc/avr/4.3.2/../../../../avr/lib/avr6\libc.a(strtod.o)
                                                  ./arduino/Stream.o
                                                  ./arduino/Print.o
__mulsi3                                          c:/program files/arduino/hardware/tools/avr/bin/../lib/gcc/avr/4.3.2/avr6\libgcc.a(_mulsi3.o)
                                                  c:/program files/arduino/hardware/tools/avr/bin/../lib/gcc/avr/4.3.2/../../../../avr/lib/avr6\libc.a(random.o)
                                                  ./arduino/wiring_pulse.o
                                                  ./arduino/WMath.o
                                                  ./arduino/Tone.o
                                                  ./arduino/Stream.o
                                                  ./arduino/Print.o
__mulsi_const_10                                  c:/program files/arduino/hardware/tools/avr/bin/../lib/gcc/avr/4.3.2/../../../../avr/lib/avr6\libc.a(mulsi10.o)
                                                  c:/program files/arduino/hardware/tools/avr/bin/../lib/gcc/avr/4.3.2/../../../../avr/lib/avr6\libc.a(atol.o)
__nesf2                                           c:/program files/arduino/hardware/tools/avr/bin/../lib/gcc/avr/4.3.2/../../../../avr/lib/avr6\libc.a(cmpsf2.o)
                                                  c:/program files/arduino/hardware/tools/avr/bin/../lib/gcc/avr/4.3.2/../../../../avr/lib/avr6\libc.a(strtod.o)
__pack_f                                          c:/program files/arduino/hardware/tools/avr/bin/../lib/gcc/avr/4.3.2/avr6\libgcc.a(_pack_sf.o)
                                                  c:/program files/arduino/hardware/tools/avr/bin/../lib/gcc/avr/4.3.2/avr6\libgcc.a(_usi_to_sf.o)
                                                  c:/program files/arduino/hardware/tools/avr/bin/../lib/gcc/avr/4.3.2/avr6\libgcc.a(_si_to_sf.o)
                                                  c:/program files/arduino/hardware/tools/avr/bin/../lib/gcc/avr/4.3.2/avr6\libgcc.a(_div_sf.o)
                                                  c:/program files/arduino/hardware/tools/avr/bin/../lib/gcc/avr/4.3.2/avr6\libgcc.a(_mul_sf.o)
                                                  c:/program files/arduino/hardware/tools/avr/bin/../lib/gcc/avr/4.3.2/avr6\libgcc.a(_addsub_sf.o)
__prologue_saves__                                c:/program files/arduino/hardware/tools/avr/bin/../lib/gcc/avr/4.3.2/avr6\libgcc.a(_prologue.o)
                                                  c:/program files/arduino/hardware/tools/avr/bin/../lib/gcc/avr/4.3.2/../../../../avr/lib/avr6\libc.a(strtod.o)
                                                  c:/program files/arduino/hardware/tools/avr/bin/../lib/gcc/avr/4.3.2/../../../../avr/lib/avr6\libc.a(dtoa_prf.o)
                                                  c:/program files/arduino/hardware/tools/avr/bin/../lib/gcc/avr/4.3.2/../../../../avr/lib/avr6\libc.a(random.o)
                                                  c:/program files/arduino/hardware/tools/avr/bin/../lib/gcc/avr/4.3.2/avr6\libgcc.a(_usi_to_sf.o)
                                                  c:/program files/arduino/hardware/tools/avr/bin/../lib/gcc/avr/4.3.2/avr6\libgcc.a(_sf_to_si.o)
                                                  c:/program files/arduino/hardware/tools/avr/bin/../lib/gcc/avr/4.3.2/avr6\libgcc.a(_si_to_sf.o)
                                                  c:/program files/arduino/hardware/tools/avr/bin/../lib/gcc/avr/4.3.2/avr6\libgcc.a(_unord_sf.o)
                                                  c:/program files/arduino/hardware/tools/avr/bin/../lib/gcc/avr/4.3.2/avr6\libgcc.a(_le_sf.o)
                                                  c:/program files/arduino/hardware/tools/avr/bin/../lib/gcc/avr/4.3.2/avr6\libgcc.a(_lt_sf.o)
                                                  c:/program files/arduino/hardware/tools/avr/bin/../lib/gcc/avr/4.3.2/avr6\libgcc.a(_ge_sf.o)
                                                  c:/program files/arduino/hardware/tools/avr/bin/../lib/gcc/avr/4.3.2/avr6\libgcc.a(_gt_sf.o)
                                                  c:/program files/arduino/hardware/tools/avr/bin/../lib/gcc/avr/4.3.2/avr6\libgcc.a(_div_sf.o)
                                                  c:/program files/arduino/hardware/tools/avr/bin/../lib/gcc/avr/4.3.2/avr6\libgcc.a(_mul_sf.o)
                                                  c:/program files/arduino/hardware/tools/avr/bin/../lib/gcc/avr/4.3.2/avr6\libgcc.a(_addsub_sf.o)
__stack                                           c:/program files/arduino/hardware/tools/avr/bin/../lib/gcc/avr/4.3.2/../../../../avr/lib/avr6/crtm2560.o
__subsf3                                          c:/program files/arduino/hardware/tools/avr/bin/../lib/gcc/avr/4.3.2/avr6\libgcc.a(_addsub_sf.o)
                                                  c:/program files/arduino/hardware/tools/avr/bin/../lib/gcc/avr/4.3.2/avr6\libgcc.a(_fixunssfsi.o)
                                                  ./arduino/Print.o
__tablejump2__                                    c:/program files/arduino/hardware/tools/avr/bin/../lib/gcc/avr/4.3.2/avr6\libgcc.a(_tablejump.o)
__tablejump__                                     c:/program files/arduino/hardware/tools/avr/bin/../lib/gcc/avr/4.3.2/avr6\libgcc.a(_tablejump.o)
                                                  c:/program files/arduino/hardware/tools/avr/bin/../lib/gcc/avr/4.3.2/avr6\libgcc.a(_ctors.o)
__thenan_sf                                       c:/program files/arduino/hardware/tools/avr/bin/../lib/gcc/avr/4.3.2/avr6\libgcc.a(_thenan_sf.o)
                                                  c:/program files/arduino/hardware/tools/avr/bin/../lib/gcc/avr/4.3.2/avr6\libgcc.a(_div_sf.o)
                                                  c:/program files/arduino/hardware/tools/avr/bin/../lib/gcc/avr/4.3.2/avr6\libgcc.a(_mul_sf.o)
                                                  c:/program files/arduino/hardware/tools/avr/bin/../lib/gcc/avr/4.3.2/avr6\libgcc.a(_addsub_sf.o)
__udivmodhi4                                      c:/program files/arduino/hardware/tools/avr/bin/../lib/gcc/avr/4.3.2/avr6\libgcc.a(_udivmodhi4.o)
                                                  c:/program files/arduino/hardware/tools/avr/bin/../lib/gcc/avr/4.3.2/../../../../avr/lib/avr6\libc.a(utoa.o)
                                                  c:/program files/arduino/hardware/tools/avr/bin/../lib/gcc/avr/4.3.2/../../../../avr/lib/avr6\libc.a(itoa.o)
                                                  c:/program files/arduino/hardware/tools/avr/bin/../lib/gcc/avr/4.3.2/avr6\libgcc.a(_divmodhi4.o)
__udivmodsi4                                      c:/program files/arduino/hardware/tools/avr/bin/../lib/gcc/avr/4.3.2/avr6\libgcc.a(_udivmodsi4.o)
                                                  c:/program files/arduino/hardware/tools/avr/bin/../lib/gcc/avr/4.3.2/../../../../avr/lib/avr6\libc.a(ultoa.o)
                                                  c:/program files/arduino/hardware/tools/avr/bin/../lib/gcc/avr/4.3.2/../../../../avr/lib/avr6\libc.a(ltoa.o)
                                                  c:/program files/arduino/hardware/tools/avr/bin/../lib/gcc/avr/4.3.2/avr6\libgcc.a(_divmodsi4.o)
                                                  ./arduino/Tone.o
                                                  ./arduino/Print.o
                                                  ./arduino/HardwareSerial.o
__unordsf2                                        c:/program files/arduino/hardware/tools/avr/bin/../lib/gcc/avr/4.3.2/avr6\libgcc.a(_unord_sf.o)
                                                  ./arduino/Print.o
__unpack_f                                        c:/program files/arduino/hardware/tools/avr/bin/../lib/gcc/avr/4.3.2/avr6\libgcc.a(_unpack_sf.o)
                                                  c:/program files/arduino/hardware/tools/avr/bin/../lib/gcc/avr/4.3.2/avr6\libgcc.a(_sf_to_si.o)
                                                  c:/program files/arduino/hardware/tools/avr/bin/../lib/gcc/avr/4.3.2/avr6\libgcc.a(_unord_sf.o)
                                                  c:/program files/arduino/hardware/tools/avr/bin/../lib/gcc/avr/4.3.2/avr6\libgcc.a(_le_sf.o)
                                                  c:/program files/arduino/hardware/tools/avr/bin/../lib/gcc/avr/4.3.2/avr6\libgcc.a(_lt_sf.o)
                                                  c:/program files/arduino/hardware/tools/avr/bin/../lib/gcc/avr/4.3.2/avr6\libgcc.a(_ge_sf.o)
                                                  c:/program files/arduino/hardware/tools/avr/bin/../lib/gcc/avr/4.3.2/avr6\libgcc.a(_gt_sf.o)
                                                  c:/program files/arduino/hardware/tools/avr/bin/../lib/gcc/avr/4.3.2/avr6\libgcc.a(_div_sf.o)
                                                  c:/program files/arduino/hardware/tools/avr/bin/../lib/gcc/avr/4.3.2/avr6\libgcc.a(_mul_sf.o)
                                                  c:/program files/arduino/hardware/tools/avr/bin/../lib/gcc/avr/4.3.2/avr6\libgcc.a(_addsub_sf.o)
__vector_1                                        ./arduino/WInterrupts.o
                                                  c:/program files/arduino/hardware/tools/avr/bin/../lib/gcc/avr/4.3.2/../../../../avr/lib/avr6/crtm2560.o
__vector_10                                       c:/program files/arduino/hardware/tools/avr/bin/../lib/gcc/avr/4.3.2/../../../../avr/lib/avr6/crtm2560.o
__vector_11                                       c:/program files/arduino/hardware/tools/avr/bin/../lib/gcc/avr/4.3.2/../../../../avr/lib/avr6/crtm2560.o
__vector_12                                       c:/program files/arduino/hardware/tools/avr/bin/../lib/gcc/avr/4.3.2/../../../../avr/lib/avr6/crtm2560.o
__vector_13                                       ./arduino/Tone.o
                                                  c:/program files/arduino/hardware/tools/avr/bin/../lib/gcc/avr/4.3.2/../../../../avr/lib/avr6/crtm2560.o
__vector_14                                       c:/program files/arduino/hardware/tools/avr/bin/../lib/gcc/avr/4.3.2/../../../../avr/lib/avr6/crtm2560.o
__vector_15                                       c:/program files/arduino/hardware/tools/avr/bin/../lib/gcc/avr/4.3.2/../../../../avr/lib/avr6/crtm2560.o
__vector_16                                       c:/program files/arduino/hardware/tools/avr/bin/../lib/gcc/avr/4.3.2/../../../../avr/lib/avr6/crtm2560.o
__vector_17                                       c:/program files/arduino/hardware/tools/avr/bin/../lib/gcc/avr/4.3.2/../../../../avr/lib/avr6/crtm2560.o
__vector_18                                       c:/program files/arduino/hardware/tools/avr/bin/../lib/gcc/avr/4.3.2/../../../../avr/lib/avr6/crtm2560.o
__vector_19                                       c:/program files/arduino/hardware/tools/avr/bin/../lib/gcc/avr/4.3.2/../../../../avr/lib/avr6/crtm2560.o
__vector_2                                        ./arduino/WInterrupts.o
                                                  c:/program files/arduino/hardware/tools/avr/bin/../lib/gcc/avr/4.3.2/../../../../avr/lib/avr6/crtm2560.o
__vector_20                                       c:/program files/arduino/hardware/tools/avr/bin/../lib/gcc/avr/4.3.2/../../../../avr/lib/avr6/crtm2560.o
__vector_21                                       c:/program files/arduino/hardware/tools/avr/bin/../lib/gcc/avr/4.3.2/../../../../avr/lib/avr6/crtm2560.o
__vector_22                                       c:/program files/arduino/hardware/tools/avr/bin/../lib/gcc/avr/4.3.2/../../../../avr/lib/avr6/crtm2560.o
__vector_23                                       ./arduino/wiring.o
                                                  c:/program files/arduino/hardware/tools/avr/bin/../lib/gcc/avr/4.3.2/../../../../avr/lib/avr6/crtm2560.o
__vector_24                                       c:/program files/arduino/hardware/tools/avr/bin/../lib/gcc/avr/4.3.2/../../../../avr/lib/avr6/crtm2560.o
__vector_25                                       ./arduino/HardwareSerial0.o
                                                  c:/program files/arduino/hardware/tools/avr/bin/../lib/gcc/avr/4.3.2/../../../../avr/lib/avr6/crtm2560.o
__vector_26                                       ./arduino/HardwareSerial0.o
                                                  c:/program files/arduino/hardware/tools/avr/bin/../lib/gcc/avr/4.3.2/../../../../avr/lib/avr6/crtm2560.o
__vector_27                                       c:/program files/arduino/hardware/tools/avr/bin/../lib/gcc/avr/4.3.2/../../../../avr/lib/avr6/crtm2560.o
__vector_28                                       c:/program files/arduino/hardware/tools/avr/bin/../lib/gcc/avr/4.3.2/../../../../avr/lib/avr6/crtm2560.o
__vector_29                                       c:/program files/arduino/hardware/tools/avr/bin/../lib/gcc/avr/4.3.2/../../../../avr/lib/avr6/crtm2560.o
__vector_3                                        ./arduino/WInterrupts.o
                                                  c:/program files/arduino/hardware/tools/avr/bin/../lib/gcc/avr/4.3.2/../../../../avr/lib/avr6/crtm2560.o
__vector_30                                       c:/program files/arduino/hardware/tools/avr/bin/../lib/gcc/avr/4.3.2/../../../../avr/lib/avr6/crtm2560.o
__vector_31                                       c:/program files/arduino/hardware/tools/avr/bin/../lib/gcc/avr/4.3.2/../../../../avr/lib/avr6/crtm2560.o
__vector_32                                       c:/program files/arduino/hardware/tools/avr/bin/../lib/gcc/avr/4.3.2/../../../../avr/lib/avr6/crtm2560.o
__vector_33                                       c:/program files/arduino/hardware/tools/avr/bin/../lib/gcc/avr/4.3.2/../../../../avr/lib/avr6/crtm2560.o
__vector_34                                       c:/program files/arduino/hardware/tools/avr/bin/../lib/gcc/avr/4.3.2/../../../../avr/lib/avr6/crtm2560.o
__vector_35                                       c:/program files/arduino/hardware/tools/avr/bin/../lib/gcc/avr/4.3.2/../../../../avr/lib/avr6/crtm2560.o
__vector_36                                       ./arduino/HardwareSerial1.o
                                                  c:/program files/arduino/hardware/tools/avr/bin/../lib/gcc/avr/4.3.2/../../../../avr/lib/avr6/crtm2560.o
__vector_37                                       ./arduino/HardwareSerial1.o
                                                  c:/program files/arduino/hardware/tools/avr/bin/../lib/gcc/avr/4.3.2/../../../../avr/lib/avr6/crtm2560.o
__vector_38                                       c:/program files/arduino/hardware/tools/avr/bin/../lib/gcc/avr/4.3.2/../../../../avr/lib/avr6/crtm2560.o
__vector_39                                       c:/program files/arduino/hardware/tools/avr/bin/../lib/gcc/avr/4.3.2/../../../../avr/lib/avr6/crtm2560.o
__vector_4                                        ./arduino/WInterrupts.o
                                                  c:/program files/arduino/hardware/tools/avr/bin/../lib/gcc/avr/4.3.2/../../../../avr/lib/avr6/crtm2560.o
__vector_40                                       c:/program files/arduino/hardware/tools/avr/bin/../lib/gcc/avr/4.3.2/../../../../avr/lib/avr6/crtm2560.o
__vector_41                                       c:/program files/arduino/hardware/tools/avr/bin/../lib/gcc/avr/4.3.2/../../../../avr/lib/avr6/crtm2560.o
__vector_42                                       c:/program files/arduino/hardware/tools/avr/bin/../lib/gcc/avr/4.3.2/../../../../avr/lib/avr6/crtm2560.o
__vector_43                                       c:/program files/arduino/hardware/tools/avr/bin/../lib/gcc/avr/4.3.2/../../../../avr/lib/avr6/crtm2560.o
__vector_44                                       c:/program files/arduino/hardware/tools/avr/bin/../lib/gcc/avr/4.3.2/../../../../avr/lib/avr6/crtm2560.o
__vector_45                                       c:/program files/arduino/hardware/tools/avr/bin/../lib/gcc/avr/4.3.2/../../../../avr/lib/avr6/crtm2560.o
__vector_46                                       c:/program files/arduino/hardware/tools/avr/bin/../lib/gcc/avr/4.3.2/../../../../avr/lib/avr6/crtm2560.o
__vector_47                                       c:/program files/arduino/hardware/tools/avr/bin/../lib/gcc/avr/4.3.2/../../../../avr/lib/avr6/crtm2560.o
__vector_48                                       c:/program files/arduino/hardware/tools/avr/bin/../lib/gcc/avr/4.3.2/../../../../avr/lib/avr6/crtm2560.o
__vector_49                                       c:/program files/arduino/hardware/tools/avr/bin/../lib/gcc/avr/4.3.2/../../../../avr/lib/avr6/crtm2560.o
__vector_5                                        ./arduino/WInterrupts.o
                                                  c:/program files/arduino/hardware/tools/avr/bin/../lib/gcc/avr/4.3.2/../../../../avr/lib/avr6/crtm2560.o
__vector_50                                       c:/program files/arduino/hardware/tools/avr/bin/../lib/gcc/avr/4.3.2/../../../../avr/lib/avr6/crtm2560.o
__vector_51                                       ./arduino/HardwareSerial2.o
                                                  c:/program files/arduino/hardware/tools/avr/bin/../lib/gcc/avr/4.3.2/../../../../avr/lib/avr6/crtm2560.o
__vector_52                                       ./arduino/HardwareSerial2.o
                                                  c:/program files/arduino/hardware/tools/avr/bin/../lib/gcc/avr/4.3.2/../../../../avr/lib/avr6/crtm2560.o
__vector_53                                       c:/program files/arduino/hardware/tools/avr/bin/../lib/gcc/avr/4.3.2/../../../../avr/lib/avr6/crtm2560.o
__vector_54                                       ./arduino/HardwareSerial3.o
                                                  c:/program files/arduino/hardware/tools/avr/bin/../lib/gcc/avr/4.3.2/../../../../avr/lib/avr6/crtm2560.o
__vector_55                                       ./arduino/HardwareSerial3.o
                                                  c:/program files/arduino/hardware/tools/avr/bin/../lib/gcc/avr/4.3.2/../../../../avr/lib/avr6/crtm2560.o
__vector_56                                       c:/program files/arduino/hardware/tools/avr/bin/../lib/gcc/avr/4.3.2/../../../../avr/lib/avr6/crtm2560.o
__vector_6                                        ./arduino/WInterrupts.o
                                                  c:/program files/arduino/hardware/tools/avr/bin/../lib/gcc/avr/4.3.2/../../../../avr/lib/avr6/crtm2560.o
__vector_7                                        ./arduino/WInterrupts.o
                                                  c:/program files/arduino/hardware/tools/avr/bin/../lib/gcc/avr/4.3.2/../../../../avr/lib/avr6/crtm2560.o
__vector_8                                        ./arduino/WInterrupts.o
                                                  c:/program files/arduino/hardware/tools/avr/bin/../lib/gcc/avr/4.3.2/../../../../avr/lib/avr6/crtm2560.o
__vector_9                                        c:/program files/arduino/hardware/tools/avr/bin/../lib/gcc/avr/4.3.2/../../../../avr/lib/avr6/crtm2560.o
__vector_default                                  c:/program files/arduino/hardware/tools/avr/bin/../lib/gcc/avr/4.3.2/../../../../avr/lib/avr6/crtm2560.o
__vectors                                         c:/program files/arduino/hardware/tools/avr/bin/../lib/gcc/avr/4.3.2/../../../../avr/lib/avr6/crtm2560.o
_div                                              c:/program files/arduino/hardware/tools/avr/bin/../lib/gcc/avr/4.3.2/avr6\libgcc.a(_divmodhi4.o)
_exit                                             c:/program files/arduino/hardware/tools/avr/bin/../lib/gcc/avr/4.3.2/avr6\libgcc.a(_exit.o)
analogRead                                        ./arduino/wiring_analog.o
analogReference                                   ./arduino/wiring_analog.o
analogWrite                                       ./arduino/wiring_analog.o
analog_reference                                  ./arduino/wiring_analog.o
atof                                              c:/program files/arduino/hardware/tools/avr/bin/../lib/gcc/avr/4.3.2/../../../../avr/lib/avr6\libc.a(atof.o)
                                                  ./arduino/WString.o
atol                                              c:/program files/arduino/hardware/tools/avr/bin/../lib/gcc/avr/4.3.2/../../../../avr/lib/avr6\libc.a(atol.o)
                                                  ./arduino/WString.o
attachInterrupt                                   ./arduino/WInterrupts.o
delay                                             ./arduino/wiring.o
                                                  ./main.o
delayMicroseconds                                 ./arduino/wiring.o
detachInterrupt                                   ./arduino/WInterrupts.o
digitalRead                                       ./arduino/wiring_digital.o
                                                  ./arduino/wiring_shift.o
digitalWrite                                      ./arduino/wiring_digital.o
                                                  ./main.o
                                                  ./arduino/wiring_shift.o
                                                  ./arduino/wiring_analog.o
                                                  ./arduino/Tone.o
digital_pin_to_bit_mask_PGM                       ./arduino/wiring_digital.o
                                                  ./arduino/wiring_pulse.o
                                                  ./arduino/Tone.o
digital_pin_to_port_PGM                           ./arduino/wiring_digital.o
                                                  ./arduino/wiring_pulse.o
                                                  ./arduino/Tone.o
digital_pin_to_timer_PGM                          ./arduino/wiring_digital.o
                                                  ./arduino/wiring_analog.o
disableTimer(unsigned char)                       ./arduino/Tone.o
dtoa_prf                                          c:/program files/arduino/hardware/tools/avr/bin/../lib/gcc/avr/4.3.2/../../../../avr/lib/avr6\libc.a(dtoa_prf.o)
                                                  c:/program files/arduino/hardware/tools/avr/bin/../lib/gcc/avr/4.3.2/../../../../avr/lib/avr6\libc.a(dtostrf.o)
dtostrf                                           c:/program files/arduino/hardware/tools/avr/bin/../lib/gcc/avr/4.3.2/../../../../avr/lib/avr6\libc.a(dtostrf.o)
                                                  ./arduino/WString.o
errno                                             c:/program files/arduino/hardware/tools/avr/bin/../lib/gcc/avr/4.3.2/../../../../avr/lib/avr6\libc.a(errno.o)
                                                  c:/program files/arduino/hardware/tools/avr/bin/../lib/gcc/avr/4.3.2/../../../../avr/lib/avr6\libc.a(strtod.o)
exit                                              c:/program files/arduino/hardware/tools/avr/bin/../lib/gcc/avr/4.3.2/avr6\libgcc.a(_exit.o)
                                                  c:/program files/arduino/hardware/tools/avr/bin/../lib/gcc/avr/4.3.2/../../../../avr/lib/avr6/crtm2560.o
free                                              ./arduino/avr-libc/malloc.o
                                                  ./arduino/new.o
                                                  ./arduino/WString.o
                                                  ./arduino/avr-libc/realloc.o
init                                              ./arduino/wiring.o
                                                  ./arduino/main.o
isspace                                           c:/program files/arduino/hardware/tools/avr/bin/../lib/gcc/avr/4.3.2/../../../../avr/lib/avr6\libc.a(isspace.o)
                                                  c:/program files/arduino/hardware/tools/avr/bin/../lib/gcc/avr/4.3.2/../../../../avr/lib/avr6\libc.a(strtod.o)
                                                  ./arduino/WString.o
itoa                                              c:/program files/arduino/hardware/tools/avr/bin/../lib/gcc/avr/4.3.2/../../../../avr/lib/avr6\libc.a(itoa.o)
                                                  ./arduino/WString.o
loop                                              ./main.o
                                                  ./arduino/main.o
ltoa                                              c:/program files/arduino/hardware/tools/avr/bin/../lib/gcc/avr/4.3.2/../../../../avr/lib/avr6\libc.a(ltoa.o)
                                                  ./arduino/WString.o
main                                              ./arduino/main.o
                                                  c:/program files/arduino/hardware/tools/avr/bin/../lib/gcc/avr/4.3.2/../../../../avr/lib/avr6/crtm2560.o
makeWord(unsigned char, unsigned char)            ./arduino/WMath.o
makeWord(unsigned int)                            ./arduino/WMath.o
malloc                                            ./arduino/avr-libc/malloc.o
                                                  ./arduino/new.o
                                                  ./arduino/avr-libc/realloc.o
map(long, long, long, long, long)                 ./arduino/WMath.o
memcmp                                            c:/program files/arduino/hardware/tools/avr/bin/../lib/gcc/avr/4.3.2/../../../../avr/lib/avr6\libc.a(memcmp.o)
                                                  ./arduino/IPAddress.o
memcpy                                            c:/program files/arduino/hardware/tools/avr/bin/../lib/gcc/avr/4.3.2/../../../../avr/lib/avr6\libc.a(memcpy.o)
                                                  c:/program files/arduino/hardware/tools/avr/bin/../lib/gcc/avr/4.3.2/../../../../avr/lib/avr6\libc.a(memmove.o)
                                                  ./arduino/WString.o
                                                  ./arduino/IPAddress.o
                                                  ./arduino/avr-libc/realloc.o
memmove                                           c:/program files/arduino/hardware/tools/avr/bin/../lib/gcc/avr/4.3.2/../../../../avr/lib/avr6\libc.a(memmove.o)
                                                  ./arduino/WString.o
memset                                            c:/program files/arduino/hardware/tools/avr/bin/../lib/gcc/avr/4.3.2/../../../../avr/lib/avr6\libc.a(memset.o)
                                                  ./arduino/IPAddress.o
micros                                            ./arduino/wiring.o
millis                                            ./arduino/wiring.o
                                                  ./arduino/Stream.o
noTone(unsigned char)                             ./arduino/Tone.o
operator delete(void*)                            ./arduino/new.o
operator delete[](void*)                          ./arduino/new.o
operator new(unsigned int)                        ./arduino/new.o
operator new[](unsigned int)                      ./arduino/new.o
operator+(StringSumHelper const&, String const&)  ./arduino/WString.o
operator+(StringSumHelper const&, __FlashStringHelper const*) ./arduino/WString.o
operator+(StringSumHelper const&, char const*)    ./arduino/WString.o
operator+(StringSumHelper const&, char)           ./arduino/WString.o
operator+(StringSumHelper const&, double)         ./arduino/WString.o
operator+(StringSumHelper const&, float)          ./arduino/WString.o
operator+(StringSumHelper const&, int)            ./arduino/WString.o
operator+(StringSumHelper const&, long)           ./arduino/WString.o
operator+(StringSumHelper const&, unsigned char)  ./arduino/WString.o
operator+(StringSumHelper const&, unsigned int)   ./arduino/WString.o
operator+(StringSumHelper const&, unsigned long)  ./arduino/WString.o
pinMode                                           ./arduino/wiring_digital.o
                                                  ./main.o
                                                  ./arduino/wiring_analog.o
                                                  ./arduino/Tone.o
port_to_input_PGM                                 ./arduino/wiring_digital.o
                                                  ./arduino/wiring_pulse.o
port_to_mode_PGM                                  ./arduino/wiring_digital.o
port_to_output_PGM                                ./arduino/wiring_digital.o
                                                  ./arduino/Tone.o
pulseIn                                           ./arduino/wiring_pulse.o
random                                            c:/program files/arduino/hardware/tools/avr/bin/../lib/gcc/avr/4.3.2/../../../../avr/lib/avr6\libc.a(random.o)
                                                  ./arduino/WMath.o
random(long)                                      ./arduino/WMath.o
random(long, long)                                ./arduino/WMath.o
randomSeed(unsigned int)                          ./arduino/WMath.o
random_r                                          c:/program files/arduino/hardware/tools/avr/bin/../lib/gcc/avr/4.3.2/../../../../avr/lib/avr6\libc.a(random.o)
realloc                                           ./arduino/avr-libc/realloc.o
                                                  ./arduino/WString.o
serialEvent()                                     ./arduino/HardwareSerial.o
serialEvent1()                                    ./arduino/HardwareSerial.o
serialEvent2()                                    ./arduino/HardwareSerial.o
serialEvent3()                                    ./arduino/HardwareSerial.o
serialEventRun()                                  ./arduino/HardwareSerial.o
                                                  ./arduino/main.o
setup                                             ./main.o
                                                  ./arduino/main.o
shiftIn                                           ./arduino/wiring_shift.o
shiftOut                                          ./arduino/wiring_shift.o
srandom                                           c:/program files/arduino/hardware/tools/avr/bin/../lib/gcc/avr/4.3.2/../../../../avr/lib/avr6\libc.a(random.o)
                                                  ./arduino/WMath.o
strchr                                            c:/program files/arduino/hardware/tools/avr/bin/../lib/gcc/avr/4.3.2/../../../../avr/lib/avr6\libc.a(strchr.o)
                                                  ./arduino/WString.o
strcmp                                            c:/program files/arduino/hardware/tools/avr/bin/../lib/gcc/avr/4.3.2/../../../../avr/lib/avr6\libc.a(strcmp.o)
                                                  ./arduino/WString.o
strcpy                                            c:/program files/arduino/hardware/tools/avr/bin/../lib/gcc/avr/4.3.2/../../../../avr/lib/avr6\libc.a(strcpy.o)
                                                  ./arduino/WString.o
strcpy_P                                          c:/program files/arduino/hardware/tools/avr/bin/../lib/gcc/avr/4.3.2/../../../../avr/lib/avr6\libc.a(strcpy_P.o)
                                                  ./arduino/WString.o
strlen                                            c:/program files/arduino/hardware/tools/avr/bin/../lib/gcc/avr/4.3.2/../../../../avr/lib/avr6\libc.a(strlen.o)
                                                  ./arduino/WString.o
                                                  ./arduino/Stream.o
                                                  ./arduino/Print.o
strlen_P                                          c:/program files/arduino/hardware/tools/avr/bin/../lib/gcc/avr/4.3.2/../../../../avr/lib/avr6\libc.a(strlen_P.o)
                                                  ./arduino/WString.o
strncasecmp_P                                     c:/program files/arduino/hardware/tools/avr/bin/../lib/gcc/avr/4.3.2/../../../../avr/lib/avr6\libc.a(strncasecmp_P.o)
                                                  c:/program files/arduino/hardware/tools/avr/bin/../lib/gcc/avr/4.3.2/../../../../avr/lib/avr6\libc.a(strtod.o)
strncmp                                           c:/program files/arduino/hardware/tools/avr/bin/../lib/gcc/avr/4.3.2/../../../../avr/lib/avr6\libc.a(strncmp.o)
                                                  ./arduino/WString.o
strncpy                                           c:/program files/arduino/hardware/tools/avr/bin/../lib/gcc/avr/4.3.2/../../../../avr/lib/avr6\libc.a(strncpy.o)
                                                  ./arduino/WString.o
strrchr                                           c:/program files/arduino/hardware/tools/avr/bin/../lib/gcc/avr/4.3.2/../../../../avr/lib/avr6\libc.a(strrchr.o)
                                                  ./arduino/WString.o
strrev                                            c:/program files/arduino/hardware/tools/avr/bin/../lib/gcc/avr/4.3.2/../../../../avr/lib/avr6\libc.a(strrev.o)
                                                  c:/program files/arduino/hardware/tools/avr/bin/../lib/gcc/avr/4.3.2/../../../../avr/lib/avr6\libc.a(utoa.o)
                                                  c:/program files/arduino/hardware/tools/avr/bin/../lib/gcc/avr/4.3.2/../../../../avr/lib/avr6\libc.a(ultoa.o)
                                                  c:/program files/arduino/hardware/tools/avr/bin/../lib/gcc/avr/4.3.2/../../../../avr/lib/avr6\libc.a(ltoa.o)
                                                  c:/program files/arduino/hardware/tools/avr/bin/../lib/gcc/avr/4.3.2/../../../../avr/lib/avr6\libc.a(itoa.o)
strstr                                            c:/program files/arduino/hardware/tools/avr/bin/../lib/gcc/avr/4.3.2/../../../../avr/lib/avr6\libc.a(strstr.o)
                                                  ./arduino/WString.o
strtod                                            c:/program files/arduino/hardware/tools/avr/bin/../lib/gcc/avr/4.3.2/../../../../avr/lib/avr6\libc.a(strtod.o)
                                                  c:/program files/arduino/hardware/tools/avr/bin/../lib/gcc/avr/4.3.2/../../../../avr/lib/avr6\libc.a(atof.o)
timer0_millis                                     ./arduino/wiring.o
timer0_overflow_count                             ./arduino/wiring.o
timer0_pin_mask                                   ./arduino/Tone.o
timer0_pin_port                                   ./arduino/Tone.o
timer0_toggle_count                               ./arduino/Tone.o
timer1_pin_mask                                   ./arduino/Tone.o
timer1_pin_port                                   ./arduino/Tone.o
timer1_toggle_count                               ./arduino/Tone.o
timer2_pin_mask                                   ./arduino/Tone.o
timer2_pin_port                                   ./arduino/Tone.o
timer2_toggle_count                               ./arduino/Tone.o
timer3_pin_mask                                   ./arduino/Tone.o
timer3_pin_port                                   ./arduino/Tone.o
timer3_toggle_count                               ./arduino/Tone.o
timer4_pin_mask                                   ./arduino/Tone.o
timer4_pin_port                                   ./arduino/Tone.o
timer4_toggle_count                               ./arduino/Tone.o
timer5_pin_mask                                   ./arduino/Tone.o
timer5_pin_port                                   ./arduino/Tone.o
timer5_toggle_count                               ./arduino/Tone.o
tolower                                           c:/program files/arduino/hardware/tools/avr/bin/../lib/gcc/avr/4.3.2/../../../../avr/lib/avr6\libc.a(tolower.o)
                                                  ./arduino/WString.o
tone(unsigned char, unsigned int, unsigned long)  ./arduino/Tone.o
toupper                                           c:/program files/arduino/hardware/tools/avr/bin/../lib/gcc/avr/4.3.2/../../../../avr/lib/avr6\libc.a(toupper.o)
                                                  ./arduino/WString.o
ultoa                                             c:/program files/arduino/hardware/tools/avr/bin/../lib/gcc/avr/4.3.2/../../../../avr/lib/avr6\libc.a(ultoa.o)
                                                  ./arduino/WString.o
utoa                                              c:/program files/arduino/hardware/tools/avr/bin/../lib/gcc/avr/4.3.2/../../../../avr/lib/avr6\libc.a(utoa.o)
                                                  ./arduino/WString.o
vtable for HardwareSerial                         ./arduino/HardwareSerial.o
                                                  ./arduino/HardwareSerial3.o
                                                  ./arduino/HardwareSerial2.o
                                                  ./arduino/HardwareSerial1.o
                                                  ./arduino/HardwareSerial0.o
vtable for IPAddress                              ./arduino/IPAddress.o
vtable for Print                                  ./arduino/Print.o
                                                  ./arduino/HardwareSerial3.o
                                                  ./arduino/HardwareSerial2.o
                                                  ./arduino/HardwareSerial1.o
                                                  ./arduino/HardwareSerial0.o
vtable for Printable                              ./arduino/IPAddress.o
vtable for Stream                                 ./arduino/HardwareSerial0.o
yield                                             ./arduino/hooks.o
                                                  ./arduino/wiring.o
